:0800000012C0FECFFDCFFCCFC2
:10000800FBCFFACFF9CFF8CFF7CFF6CFF5CFF4CFB4
:10001800F3CFF2CFF1CFF0CFEFCFEECFEDCFF89413
:10002800EE27ECBBF1E0FBBFEBBFE5BF8DE0A2E044
:10003800BB27ED938A95E9F780E094E0A0E6ED937D
:100048000197E9F7EFE5EDBFE4E0EEBFC0E6D1E0E8
:100058008BC0B89AC09A0895BA93AA93C098E881B9
:10006800F981D3D0AE2FB7D0E881AE2FB4D0C09AE3
:1000780022960895A1E0BFE0EFDFA8EEB3E0B3D089
:10008800A0E0BFE0E9DF0895AA93C4D010E000E043
:10009800AA81A03011F4E1E0EA83AA81A83010F027
:1000A800E7E0EA83D6DFA0E0BFE0D6DFAC81A1308D
:1000B80009F4E0DFAB81A13051F4EA81E11730F0B7
:1000C800E12FA1E09AD00E2B1F5FF7CF0FC0EB8175
:1000D800E03059F4EA81E11738F0E12FA1E08DD042
:1000E800E0950E231F5FF6CF01C00B81E02FF0E0F3
:1000F800F960DF01B1DFEA81F0E0FB60DF01ACDF2E
:10010800A1E0BCE020C0AA9385D000E010E0AC815B
:10011800A03011F4E1E0EC83AC81A83010F0E8E005
:10012800EC83AA81A03819F4EB81E06802C0EB8166
:10013800EF77EB830C811127B02FA0E0F0E0EA2BDA
:10014800FB2B8F01D80188DF68D0259608951A9374
:1001580011E0193038F41A93EFE0EA93AFE7D3DFF0
:100168001F5FF7CF19910895EDE2E7BBE0E0E8BB28
:10017800E4BBE5BBE1BBE2BBE3BFE2BFEFBDEEBD65
:10018800EDBDECBDE7BDE6BDEBBDEABDE9BDE8BD33
:10019800E2BDE5BDE4BDE3BDE9BFE5BFEAB9E0E81E
:1001A800E8B9E0E0E0BFE6B9E2E5EDB9E0E0EEB9D4
:1001B800E6BFE1E0EA93EA93A8E066DFC8DFE2E0A1
:1001C800EA93EA93AFE79FDFE4E0EA93EA93A0E8D3
:1001D8009ADFFFCFFFCFAA93E881EFB9779BFECFD5
:1001E800EFB121960895109639F080EA9FE00197C3
:1001F800F1F7A8951197C9F70895EE230E2EEA2F67
:1002080019F0EE0F0A94E9F70895EF2FFF27E7FD9D
:10021800FFEF08951A930A930895198108810895A4
:00000001FF
