:100000007EC2FECFFDCFFCCFFBCFFACFF9CFF8CF2A
:10001000F7CFF6CFF5CFF4CFF3CFF2CFF1CFF0CFCC
:10002000EFCFEECFEDCF050720E00000000000008D
:10003000005F00000007000700341C361C16224534
:100040007F512222152A5422364955235000000799
:100050000000001C2241000041221C00120C1E0C5A
:100060001208083E080800402000000008080800A8
:10007000000040000020100804023E4141413E00C3
:1000800002417F4042615149662241494936181474
:10009000527F4027454545393E494949326111095A
:1000A00005033649494936264949493E00002200A0
:1000B0000000402200000008142200001414140064
:1000C000002214080000025905023E4955592E7CB1
:1000D0001211127C7F494949363E414141227F41FC
:1000E00041413E7F494949417F090909013E41415A
:1000F00051327F0808087F00007F00002040403F09
:10010000007F081422417F404040407F0204027F6C
:100110007F0204087F3E4141413E7F090909063EB6
:100120004141215E7F091929462245495122010199
:100130007F01013F4040403F1F2040201F3F403C87
:10014000403F63140814630708700807615149456C
:1001500043007F41410002040810200041417F001C
:1001600000020102000040404000000102000020A7
:10017000545438407E484830003C424224003048C5
:10018000487E003C4A4A2C0000107C12040C52525B
:100190003C007E1008700000007A000000403A0029
:1001A000007E1028440000007E00007C0478047863
:1001B0007C080478003C42423C007E12120C000095
:1001C0001C22127E7E04020400244A5224000008ED
:1001D0003E48203E40403E001E60601E003E4038CB
:1001E000403E44281028444628100E0062524A46D9
:1001F00000083641000000007F0000000041360882
:100200000201020100003E223E0000027E2A300070
:100210007E020302004020000000780C080040200D
:10022000402000004040400000047E040000247E86
:100230002400143C56422426166864627E017F48DE
:100240003000081400007F087F48307E08152240E7
:10025000027E0A0A703F2060203F021F4A4A300097
:100260000102000000020100000001020102000280
:10027000010201040E0E0400000808080008080826
:1002800008000000000000020E02040E78047C50FA
:100290002000140800007C107C50207C102A4000B4
:1002A0007E241060003C20603C0000000000000E36
:1002B0005051503E0E50513E002040403E00001430
:1002C0000814007E020203000000770000204A5557
:1002D00029027E4B4A43423C5A66423C3E494941D0
:1002E0002208140008140404040C00000808080084
:1002F0003E7D55693E00027C0200000205020000BE
:10030000242E240000007C0000000074000000780F
:10031000080C007E20201E200E7E027E00000002BF
:1003200000003D4A4A2D007E04087E2838544400CF
:1003300000140800140840403A00002245495122A8
:10034000244A52240000047804007C1211127C7F9D
:10035000494949317F494949367F01010101407EC0
:1003600041417F7F4949414177087F0877224149D0
:1003700049367F1008047F7E1009047E7F0814220E
:1003800041403E01017F7F0204027F7F0808087F11
:100390003E4141413E7F0101017F7F090909063E3F
:1003A0004141412201017F0101274848483F0E1188
:1003B0007F110E63140814633F2020207F0F10105C
:1003C000107F7F407C407F3F203C207F017F48485A
:1003D000307F4830007F7F48484830224149493EBD
:1003E0007F083E413E462919097F304A4A3C403C3D
:1003F0004A4A30007E4A4A34007E02020200407CB3
:10040000427E403C52520C0076087E087624424AD6
:1004100034007E10087E007C100A7C007E08146286
:10042000007C02027E007E0408047E7E08087E00B6
:100430003C42423C007E02027E007E12120C003CD6
:100440004242240002027E02020E50503E001C2254
:100450007E221C62140814623E20203E600E1010A2
:100460007E007E4078407E3E2038207E027E4848D6
:10047000307E4830007E7E4848300024424A3C00AE
:100480007E083C423C4C32127E00000103070F1FE5
:100490003F7FFF001027E80364000A0001000010FE
:1004A0000001100001000000CEF8E8E1EAE020EFD2
:1004B000F0E8E5ECE000CFF0EEE2E5F0EAE0205510
:1004C0005341525400CFF0E8EDFFF2EE3A200048DD
:1004D000656C6C6F2C20576F726C64210A000100F0
:1004E0002D4E414E00494E46000002000400A60475
:1004F0000F006001CF0401008A03DE040000F894BD
:10050000EE27ECBBF1E0FBBFEBBFE5BF8DE0A2E067
:10051000BB27ED938A95E9F780E094E0A0E6ED93A0
:100520000197E9F7EAEEF4E085919591009761F083
:10053000A591B59105901590BF01F00105900D9220
:100540000197E1F7FB01F0CFEFE5EDBFE4E0EEBF8F
:10055000C0E6D1E03EC0AA935D9BFECFE881ECB936
:100560004BC1EBB1EC7189F455245F9BFECFA52DF7
:10057000B0E0A457BE4FECB1EC935394E4E05E16A8
:10058000A0F3E51509F4552404C038D1A8EAB4E075
:1005900001D4089593D495D4EC91E03039F091D4FE
:1005A000ED91A883B983AE2FD6DFF5CF27C41A9378
:1005B0008BD4A5ECB4E0EED310E0143040F4E12F7E
:1005C000F0E0E457FE4FA08193D31F5FF6CF19915F
:1005D00008952897E0E0E7BBE1E0E8BBE0E0E4BB9A
:1005E000E5BBE1BBE2BBE3BFE2BFEFBDEEBDEDBDEE
:1005F000ECBDE7BDE6BDEBBDEABDE9BDE8BDE2BDD2
:10060000E5BDE4BDE3BDE9BFE5BFEBB9E8E1EAB9AB
:10061000E6E8E0BDE0E0E0BDE3E3E9B9E0E8E8B941
:10062000E0E0E0BFE6B9EDB9E6BFE6E2F0E0E8837E
:10063000F983E0E0EA83EB83EC83ED83EE81EC7FEA
:10064000EE83E37EEC60EE83EF81E078E064EF839D
:10065000DE0163D039D4B0990AC0442039F4A0E651
:10066000B1E098DFADE077DFE1E04E2E01C0442439
:100670005F9B02C076DF9BDFEECFFFCF089528D4CB
:10068000AB9818E0FBDFE981E07811F0A89A01C08F
:10069000A898E981EE0FE983F1DFA99AEFDFA99825
:1006A000115081F7AB9A1881A9C3AA93AA98A8817F
:1006B000E6DFA2C0AA93AA9AA881E1DF9DC008D470
:1006C000E98109D41E2FE4E5E19FF001DF01EA8111
:1006D00006D4E0939001F0939101E12F1881CFC3EC
:1006E000AA93E981E068FFD3E981EA93A981E7DF72
:1006F000E064F9D383C3AA93E981EA93A981F0DF87
:10070000E0919001F0919101F0D3E08177C3AA9339
:10071000EFD3A881A083CEDF6FC0D0D3BDD4A39A7E
:10072000AB9AA19AA998A09AA29AA49AAC98AAE086
:10073000B0E069D4AC9AE5D33097E1F0E2D3E6813A
:10074000E3701E2FDED3E681E695E695E7700E2F67
:10075000D8D3E781EF773E2FAC81BD8176D4D4D357
:10076000AC81BD81129671D4D4D3AC81BD81149675
:100770006CD408C010E003E030ECD0D3C5D3CED3A6
:10078000C8D3CCD3E0938A01F0938B01A1E28DDF33
:10079000E12FE460A8D3E02FE061A5D3E32FE06868
:1007A000A2D3A0E282DFA1E01FD0E1E0E0936F01DD
:1007B000E0E0E0937001E1E0E0937501E093760101
:1007C000E0937701EFEFE0937801E1E0E0937F01C0
:1007D000E0E8F1E0A6D3EFEFEA93A8E0B0E0F7D2CB
:1007E0000DD0E1E060D45AC0AA93E881E03011F066
:1007F000ECE001C0E8E077D3219608954DD430E0D5
:10080000E0917001E03009F03FEFE0E0EA93A0E012
:1008100067DF08EF11E0F80101501040309719F040
:10082000A32F75DFF8CFE0E0EA93A0E0C4D23BD479
:1008300043C34ED3ED81EA93AD815DDF1E2FE98185
:10084000E73011F0E83031F4EB81EA93AA81D8D295
:10085000EB8308C0E33021F4EB81E095EB8302C029
:10086000E03021F4EA81E0951E2302C0E23029F451
:10087000EA81AB81EA231E2B0EC0E13029F4EA8124
:10088000AB81EA231E2707C0E43029F4EA81E09512
:10089000AB81EA2B1E23A12F3ADF188126960895FB
:1008A000AA932397F7D3A889A43548F4AF85A0333A
:1008B00030F4AE85A03019F0AD85A03009F488C1C0
:1008C000EE85E887A889BB27EE852ED3A535E0E025
:1008D000BE0720F0A889E4E5EA1BEE872D85AF85E9
:1008E000BB27ED8521D3D19720F0AF85E0E3EA1B4C
:1008F000ED87A985A63009F054C0EC85E13009F4F4
:1009000067C1E33039F4E0918A01F0918B013097AF
:1009100009F45EC10885ED85DED23E2FE22FE77037
:1009200019F4AD852A17D9F0A02FBB27E32F00D3E8
:10093000AA85BB85EA0FFB1FFED226952695269534
:10094000532F5F935F5FE22FAF91EA1740F0102FB4
:10095000E12F1150E03011F0F1D2FACFF2CFAE8595
:100960000A17F9F0EE85AA85BB85B9D2E4D2ED85E8
:10097000E77009F03F5F20E02F932F5FE32FAF91E7
:10098000AE1778F41E851F931F5FE02FAF91AE174F
:1009900010F4D4D2F8CFEE85AE81BF81A0D2CBD2F5
:1009A000EBCFEF85E7703E2FED85E03009F410C105
:1009B000EA85FB85C0D210E00889303009F059C0C3
:1009C000AD85A83008F450C0E985E03011F0E3307F
:1009D00009F402C0E73009F402C0E83009F402C0AB
:1009E000E93009F402C0EA3019F4B3D279DE04C068
:1009F000E63011F4AED263DE1F93AED2AF91AE17E4
:100A000060F5A985A63031F4AAD28BD271D2A0812B
:100A100038D222C0E985E93011F450E00CC0EA3048
:100A200011F45FEF08C09BD2A3D25E2FE985E730B7
:100A300011F0E83019F4A1D25E2F06C0E33011F4B2
:100A4000509502C0E03019F4A52F34DE05C098D2CD
:100A5000EFEFEA93AD85EDDECFCFEF85E85FEF876F
:100A6000ED85E850ED87ADC05D8520E0E0E0ED87E5
:100A700067C0E32FAD85AE0FA93020F42D85E0E0EF
:100A8000ED8703C0E8E0E31B2E2F3A93A22FAED1EF
:100A90004E2FE985E630B9F45CD211DE1F935CD2AB
:100AA000AF91AE1778F424D2E081E423AE2FE32F88
:100AB000BCD26CD2E32FA42FB8D272D232D2A52FDF
:100AC000E0D1ECCF22C0E93011F450E003C0EA30AD
:100AD00089F45FEF52D2AE2FE32F9FD25E2F1F9388
:100AE0003BD2AF91AE1728F44BD24A93A0E0A1DEDF
:100AF000F6CF0BC01F9330D2AF91AE1730F454D263
:100B0000AE2FE32F8AD25DD2F5CFED85E03009F428
:100B10005FC0AD85A83028F4ED85E21B5E2FE0E0D4
:100B200003C0532FED85E850ED8710E0EF85E85FB7
:100B3000EF87E8E0E31B2E2F0889EA85FB85FBD1D0
:100B4000E52FF0E0E657FB4F4491E985E630B9F434
:100B500000D2B5DD1F9300D2AF91AE1778F4C8D1A3
:100B6000E081E423AE2FE22F58D210D2E22FA42F3F
:100B700054D216D2D6D1A52F84D1ECCF22C0E930E1
:100B800011F450E003C0EA3089F45FEFF6D1AE2FE4
:100B9000E22F4BD25E2F1F93DFD1AF91AE1728F417
:100BA000EFD14A93A0E045DEF6CF0BC01F93D4D11E
:100BB000AF91AE1730F4F8D1AE2FE22F36D201D27A
:100BC000F5CFE885AA85BB858AD1EA87FB87ECCE7D
:100BD00068D26196089572D174D158D214F09ED122
:100BE0000DC16FD1A435E0E0BE071CF0E3E5F0E0F5
:100BF00005C1E881F98102C161D163D147D214F006
:100C00008DD1FCC05ED1D0971CF0EFE2F0E0F6C0D1
:100C1000E881F981F3C052D12397D7D18F01002EFB
:100C2000012A11F47BD152C0D6D10F82D4D10E82C9
:100C3000D2D10886EB85A885EA1710F46FD146C09B
:100C4000F8010F5F1F4F5491A885BB27EE27A50F12
:100C5000BE1FEB85F0E0EA17FB0710F05FD136C04E
:100C6000EE8139D14E2FEE81E77009F04F5FEF81B1
:100C7000E03081F0A985BA85EC93A885EB85EA1B65
:100C8000F0E0DF01EF8154D1DF01E42F51D1E00F1B
:100C9000F11F1CC09801E52FF0E00E0F1F1FA88563
:100CA000AF5FA887A150EB85AE1750F4F9012F5F15
:100CB0003F4FA491B0E0E42F3BD10E0F1F1FEFCFA9
:100CC000F901E491A985BA85EC93F801EAD12C9653
:100CD0000895E0E0E0937101A0917201BB2780D1FB
:100CE00023D1E091760120D187DFE093720108954E
:100CF000AA9321976AD1309709F447C0AF81AA30EF
:100D000009F441C0EF81EA93DE01179684DFAF0159
:100D10003097E9F1E0917501AE81EA0F3E2FA09185
:100D20007101BB27DCD08F010535E0E01E0718F00C
:100D3000032F1127CEDFE091710159D1E885EA93A5
:100D40004FD1EA93E1E0EA935A934A93A7E0A8DDF2
:100D5000E0917101AE81EA0F4AD1E0917501EA9309
:100D60003FD14AD1E0917101EA93A091720138D14B
:100D7000EA0FEA933A93E09176013ED1E4E5F0E0A0
:100D8000E017F10711F4A5DF02C00093710189D1CA
:100D90002896089593D01A93E981FA813196E983D0
:100DA000FA833197E4911E2FE03019F0A12FA0DFD4
:100DB000F3CF188164C0AA93A981BB270CDFE0930D
:100DC0007101A881BB2718DFE093720117C076D0AC
:100DD000B981A881109631F0FC81EB816A81619321
:100DE0001197E9F7EB81FC8125960895AA93E88194
:100DF000F0E0E657FB4FA491E9810FD122960895C8
:100E000067D0E981E73011F0EA3019F410916F01F1
:100E100009C0E93019F41091700104C0E830A1F460
:100E200010917F01E0917001E03049F0103019F02D
:100E3000EFEF188124C0EA81E095188120C01030BE
:100E400019F4E0E018811BC0EA81188118C036D07F
:100E5000EA81E13021F4E881F981E49110C0E230C7
:100E600019F42FD0F6D00BC0E33039F42AD0E0913A
:100E70008801F0918901099502C023D0EC91239655
:100E80000895AA93EB81E03029F4E881A981BA8121
:100E9000EC9312C0E23029F4E881A981BA81E5D04F
:100EA0000BC0E33049F4E981FA813BD0AA81E0919B
:100EB0008A01F0918B01099524960895BA93AA931B
:100EC0000895A881B981089599DCA6EBB4E062CFBA
:100ED000AA931A930895E695E695E6950895F0E0AD
:100EE000EA0FFB1F0895AE2FE0CBEE56FE4F08959C
:100EF000A0E9B1E0ED91FD913196FE93EE9331972B
:100F0000F4CFEC81FD810895E0937301F0937401B7
:100F10000895E0938801F09389010895E0E0F0E0FE
:100F20000895FA93EA930895F0E0AE0FBF1F089575
:100F3000F0E083D00895EE83FF830895EC85EA9373
:100F4000EF81F8853196EF83F8873197EADFA0E0EB
:100F500098CF0A93A88908951F5FEE850895EC85C0
:100F6000EA93EF81F8853196EF83F88731970895FA
:100F700066277727DF01CB016ACF5A93AA8540CF36
:100F80000A930395E889EA935A9308955E2FEC85B6
:100F9000EA93AF81B8858827992759DF1E2E0895D7
:100FA000E095E1215E2BDBCF0A930395E889EA9374
:100FB000EE85EA93E985FA853196E987FA873197D4
:100FC000D7CFEA934A93AD8534CC64D0E0917301D6
:100FD000F09174010895F8010F5F1F4F0490089578
:100FE000E0917301F09174013196E4910895EA93D0
:100FF000E0917201EA930895EA93E0E0EA938EDFCC
:1010000090DFA9E04DCC109639F080ED97E0019784
:10101000F1F7A8951197C9F70895EE230E2EEA2F40
:1010200019F0EE0F0A94E9F70895EE230E2EEA2F39
:1010300019F0E6950A94E9F70895FA9FF02DEB9FD1
:10104000F00DEA9FE02DF10D0895ED91FC911197BF
:101050000895E199FECFFF93FFB7F894AEBBBFBBF5
:10106000E09AEDB3FFBFFF910895E19B02C0A89500
:10107000FCCF9FB7F894AEBBBFBBE09A8DB3E81727
:1010800019F0EDBBE29AE19A9FBF089500240A1679
:101090000B0608955A934A933A932A931A930A9304
:1010A00008955D814C813B812A81198108810895D1
:00000001FF
