:0A00000045C0FECFFDCFFCCFFBCFC3
:10000A00FACFF9CFF8CFF7CF68C0F5CFF4CFF3CF57
:10001A00F2CFF1CFF0CFEFCF16C2EDCF00007F00C5
:10002A0053656C656374206E756D203D0057726967
:10003A007465206E756D203D200052656164206EE6
:10004A00756D203D200001002D4E414E00494E465F
:10005A000000070080C001000200260001000A001B
:10006A0028000D00600137000C006D0144000100FA
:10007A008001500001007B015C00020090015E00DB
:10008A000000F894EE27ECBBF1E0FBBFEBBFE5BF45
:10009A008DE0A2E0BB27ED938A95E9F780E094E032
:1000AA00A0E6ED930197E9F7E0E6F0E085919591F6
:1000BA00009761F0A591B59105901590BF01F001E7
:1000CA0005900D920197E1F7FB01F0CFEFE5EDBF47
:1000DA00E4E0EEBFC0E6D1E094C00A921A92FA9226
:1000EA006A937A938A939A93AA93BA93EA93FA931E
:1000FA00EFB7EA93EEECE2BF0ED0E991EFBFF991C8
:10010A00E991B991A9919991899179916991F99016
:10011A00199009901895E6B3E3705E2E451409F418
:10012A0040C0E42DF0E0E230A0E0FA0741F4E3E059
:10013A00E51509F46394552009F4939423C0309784
:10014A0049F4E2E0E51509F46394E1E0E51509F400
:10015A00939418C0E130A0E0FA0741F4552009F45D
:10016A006394E3E0E51509F493940CC0E330A0E04E
:10017A00FA0741F4E1E0E51509F46394E2E0E515D4
:10018A0009F49394452CE4E06E1610F0A3946624C7
:10019A00E4E09E1610F0AA949924EFEFEA1508F409
:1001AA00AE2E0895EDD2AAE2B0E01DD35AD3089537
:1001BA0062D3E881F9818FD3E0937D01E881E093EE
:1001CA007E015CD3E2E0EA93EDE0F0E05ED3A1E0E9
:1001DA00D4D0ED2DD3C2AA93E981FA817CD3E093DE
:1001EA007D01E981E0937E01E881E0937F0146D3B6
:1001FA00E3E0EA93E0E0F0E048D3A0E0BED048D3E1
:10020A0002C3E0E0E7BBEFE0E8BBE0E0E4BBE5BB4C
:10021A00EFE7E1BBE0E0E2BBE3E0E3BFEEECE2BF25
:10022A00E0E0EFBDEEBDEDBDECBDE7BDE6BDEBBD6B
:10023A00EABDE9BDE8BDE2BDE5BDE4BDE3BDE1E07F
:10024A00E9BFE0E0E5BFEAB9E0E8E8B9E0E0E0BF2D
:10025A00E6B9EDB9A4E6B0E06BD0A0E1D6D27894C5
:10026A007A1411F09FDF7A2CB29915C011D3A0E04D
:10027A00B29BA1E0E82DE095EA2361F0E2E1F0E02B
:10028A0004D3AA2DA8DF07D3A0E6B1E09ED2E9D213
:10029A00E1E08E2E01C08824B3991AC0F9D2A0E0F9
:1002AA00B39BA1E0EB2DE095EA2389F0F4D2ADE609
:1002BA00B1E08BD2A2E1B0E07BDFF0E0E6D2ACE7BE
:1002CA00B1E009D0ACE7B1E080D2E1E0BE2E01C0D6
:1002DA00BB24C6CFFFCFCFD2A991B991E991F991A9
:1002EA0030962AF4E095F09531966DE26D93E89494
:1002FA0080E197E20DD088EE93E00AD084E6992750
:10030A0007D08AE005D06E2F10D066276C93089527
:10031A006627E817F90720F06395E81BF90BC9F778
:10032A00662311F416F008956894605D6D9308953C
:10033A00A2D21A93689421F8E7E0E0937B01E0E007
:10034A00E0938C01E0938D01E0938E01E0938F019D
:10035A00AC9AAD9AE6BFE1B1EC7FE1B9E981FA81E5
:10036A00A0EABFE0C2D21E2F183008F0185010B908
:10037A00E6B7E078E564E6BF45C2AA93249721FE72
:10038A005FC0EA85EE0FE0938401E885F985E09382
:10039A008501F0938601E0E0E0937901EF81E09333
:1003AA008701ED81FE81E0938801F0938901E0E005
:1003BA00E0937A01EC81E0938A01E6E0E0937B0125
:1003CA007894EF81E03079F0E885F9853097C1F1CA
:1003DA00EC81E03021F0AD81BE81109709F001C0B7
:1003EA002FC068940DC0EC81E03029F1ED81FE81C7
:1003FA00309731F1E0918401E160E0938401E8945F
:10040A0020F8E89421F8E6B7EF70E06AE6BFE0E288
:10041A00F1EA67E070E044D221FC0DC079D231974D
:10042A00604070403DD231F4E5E0E0937B0168948E
:10043A0021F806C0F1CFA0917B01E0E051D201C0C2
:10044A00E0E02B9608950A921A92FA926A937A93A6
:10045A008A939A93AA93BA93EA93FA93EFB7EA9391
:10046A0061D210917A01009179013091870120912E
:10047A007B01E12FA0918801B0918901F0E0EA0F98
:10048A00FB1FAF01E1B1E87FE83011F420E002C0C0
:10049A00E03119F4E091840110C0E83111F0E8323A
:1004AA0021F5031780F4E02F0F5FA0918501B09129
:1004BA008601F0E0AE0FBF1FEC91E3B9E6B7EF702B
:1004CA00E068E6BF11C0E0918A011E1760F4E0916E
:1004DA008401E160E0938401E89420F8E6B7EF70C4
:1004EA00E06AE6BFFBC033C0F9C0E03529F4E3B1E6
:1004FA00DA01EC931F5F02C0E03471F4E0918A01E3
:10050A00E1501E1720F0E6B7EF70E06803C0E6B7C7
:10051A00EF70E06CE6BFE2C0E83529F4E3B1DA0136
:10052A00EC931F5F02C0E03209F402C0E03309F421
:10053A0002C0E83469F4203051F420FE03C00317E6
:10054A0028F005C0E0918A011E1708F424E0C0C013
:10055A00E83329F422E0E6B7EF70E068BCC0E83679
:10056A0011F0E83711F422E005C0E03611F0E03767
:10057A0091F420E010E0E89420F8E0918B01E0305B
:10058A0029F421E0E6B7EF70E06803C0E6B7EF7040
:10059A00E06CE6BFA3C0E03811F0E03929F520FE8F
:1005AA0002C021E095C0E3B1DA01EC931F5FE0914C
:1005BA008B011E17B0F4E0918C01F0918D013097F8
:1005CA0011F426E085C0A0E0E0918C01F0918D0144
:1005DA000995E03029F0E6B7EF70E06CE6BF7EC01F
:1005EA0002C0689420F802C0E83809F402C0E83969
:1005FA0029F4E6B7EF70E068E6BF70C0E03AA9F404
:10060A00E6B7EF70E06CE6BF689421F8E0918C01E0
:10061A00F0918D01309739F0A1E0E0918C01F091D1
:10062A008D01099501C026E059C0E03B11F422E092
:10063A0002C0E83AB9F4E0918E01F0918F01309747
:10064A0059F0A0E0E0918E01F0918F0109953E2FBB
:10065A00E03011F020E002C026E03AC000E0E89461
:10066A0020F802C0E83BE1F420FE02C021E030C0DD
:10067A00E02F0F5FA0918501B0918601F0E0AE0FE7
:10068A00BF1FEC91E3B9031720F4E6B7EF70E06CF3
:10069A0005C0689420F8E6B7EF70E068E6BF1EC0B0
:1006AA00E03C11F0E83C89F4E6B7EF70E06CE6BF95
:1006BA00E0918E01F0918F01309731F0A1E0E09145
:1006CA008E01F0918F01099507C0E03039F423E0DB
:1006DA00E6B7EF70E06DE6BF689421F810937A01EF
:1006EA000093790120937B013093870122D12696CA
:1006FA00E991EFBFF991E991B991A99199918991FC
:10070A0079916991F990199009901895AA93E881BD
:10071A00E07111F0939A01C09398E881E07211F0A8
:10072A00949A01C09498E881E07411F0959A01C0F6
:10073A009598E881E07811F0969A01C09698B2D01F
:10074A00929AB0D09298AED08AC0AA93A881DEDFDE
:10075A00E881E295E883A881D9DF85E88A95F1F7EF
:10076A007EC0AA93E881F0E0E057FE4FE081A981BC
:10077A00AE0FEBDFC980E881E093940122960895D9
:10078A00A2E094D0ACE0E1DFA1E090D0E0E0E09319
:10079A009401CE2E0895AA93A881AA3021F0E0915F
:1007AA009501CE1660F0E0E0EA93A0919401AF5F64
:1007BA00A0939401D6DFA881AA3009F450C0C3944B
:1007CA00909AA881C2DF90984AC055D01A93A981FD
:1007DA00BA81ED91A983BA831E2FE03019F0A12FB7
:1007EA00DADFF5CF0FC047D01A93E981FA81319643
:1007FA00E983FA833197E4911E2FE03019F0A12F93
:10080A00CADFF3CF188123960895AA938B9A8C9AFC
:10081A008D9A8E9A8A9A889A899A9298909891989B
:10082A00E881E0939501E058E0939201E881E05471
:10083A00E0939301A4E1B0E044D03CD03BD03AD05D
:10084A00A0E264DF88EC90E00197F1F7A8E27DDF8F
:10085A00A4E07BDFA5E879DFA6E077DF91DF2196C8
:10086A000895EA2DF0E0FA93EA93ACE7B1E033DDBC
:10087A00ACE7B1E0AACFBA93AA930895E0E5EA9368
:10088A00EDE7F1E0FA93EA930895FA93EA9308956B
:10089A00AAE0B0E016C074DFE0E0EA93A1E061CF1D
:1008AA003CD008958DE08A95F1F708954EDFA3E0D4
:1008BA00B0E007C0A0E32ADF88EC90E00197F1F7E7
:1008CA000895109639F080ED97E00197F1F7A89511
:1008DA001197C9F70895EF2FFF27E7FDFFEF089556
:1008EA00EA17E1E009F0EE2708950024112490E1C7
:1008FA00AA0FBB1F001C111C0E1A1F0A18F40E0E99
:10090A001F1E01C0A1609A9599F7FD01D0010895B3
:10091A00E881F9816A817B810895E883F9836A8392
:10092A007B8308955A934A933A932A931A930A9384
:10093A0008955D814C813B812A811981088108953E
:00000001FF
