:0C00000018C0FECFFDCFFCCFFBCFFACF25
:10000C00F9CFF8CFF7CF3BC0F5CFF4CFF3CFF2CF8A
:10001C00F1CFF0CFEFCFEECFEDCF0000000004001A
:10002C00040026000000F894EE27ECBBF1E0FBBFC7
:10003C00EBBFE5BF8DE0A2E0BB27ED938A95E9F716
:10004C0080E094E0A0E6ED930197E9F7EAE2F0E0B6
:10005C0085919591009761F0A591B59105901590BA
:10006C00BF01F00105900D920197E1F7FB01F0CF74
:10007C00EFE5EDBFE4E0EEBFC0E6D1E016C0EA93D9
:10008C00EFB7EA93E2EBE2BFE3E1E71549F4E1E015
:10009C005E2E7724442011F0442402C0E1E04E2E61
:1000AC007394E991EFBFE9911895EEE2E7BBE4E1B7
:1000BC00E8BBE0E3E4BBE0E0E5BBE1BBEFE3E2BBC4
:1000CC00E5E0E3BFE2EBE2BFE0E4EFBDE9E0EEBD6B
:1000DC00ECEDEDBDEDE7ECBDE0E0E7BDE6BDE3E248
:1000EC00EBBDE2E8EABDE0E0E9BDE8BDE2BDE5BD9F
:1000FC00E4BDE3BDE1E0E9BFE0E0E5BFEAB9E0E87B
:10010C00E8B9E0E0E0BFE6B9E1E5EDB9E0E0EEB971
:10011C00E6BF7894809902C0552009F407C04420AA
:10012C0029F4C298A5E004D0C29A5524F3CFFFCF8E
:10013C00AA93E881EFB9779BFECFEFB12196089592
:00000001FF
