:080000006AC2FECFFDCFFCCF68
:10000800FBCFFACFF9CFF8CFF7CFF6CFF5CFF4CFB4
:10001800F3CFF2CFF1CFF0CFEFCFEECFEDCF050793
:1000280020E0000000000000005F0000000700075B
:1000380000341C361C1622457F512222152A5422D0
:1000480036495523500000070000001C22410000DB
:1000580041221C00120C1E0C1208083E0808004021
:1000680020000000080808000000400000201008D8
:1000780004023E4141413E0002417F4042615149F4
:100088006622414949361814527F4027454545396B
:100098003E4949493261110905033649494936261D
:1000A8004949493E000022000000402200000008A3
:1000B800142200001414140000221408000002592D
:1000C80005023E4955592E7C1211127C7F49494937
:1000D800363E414141227F4141413E7F49494941A4
:1000E8007F090909013E414151327F0808087F0014
:1000F800007F00002040403F007F081422417F40DD
:100108004040407F0204027F7F0204087F3E414155
:10011800413E7F090909063E4141215E7F091929AF
:1001280046224549512201017F01013F4040403F9D
:100138001F2040201F3F403C403F631408146307C2
:10014800087008076151494543007F414100020496
:100158000810200041417F000002010200004040D9
:100168004000000102000020545438407E484830C6
:10017800003C424224003048487E003C4A4A2C0059
:1001880000107C12040C52523C007E1008700000D3
:10019800007A000000403A00007E10284400000069
:1001A8007E00007C047804787C080478003C424295
:1001B8003C007E12120C00001C22127E7E040204F7
:1001C80000244A52240000083E48203E40403E0099
:1001D8001E60601E003E4038403E442810284446B9
:1001E80028100E0062524A460008364100000000FE
:1001F8007F000000004136080201020100003E2293
:100208003E0000027E2A30007E02030200402000E9
:100218000000780C080040204020000040404000CA
:1002280000047E040000247E2400143C5642242648
:10023800166864627E017F483000081400007F0859
:100248007F48307E08152240027E0A0A703F2060EF
:10025800203F021F4A4A300001020000000201004C
:100268000000010201020002010201040E0E040056
:10027800000808080008080808000000000000023C
:100288000E02040E78047C502000140800007C1034
:100298007C50207C102A40007E241060003C2060A6
:1002A8003C0000000000000E5051503E0E50513EE0
:1002B800002040403E0000140814007E02020300A3
:1002C8000000770000204A5529027E4B4A43423CF1
:1002D8005A66423C3E494941220814000814040465
:1002E800040C0000080808003E7D55693E00027CA9
:1002F8000200000205020000242E240000007C00F9
:100308000000007400000078080C007E20201E20E9
:100318000E7E027E0000000200003D4A4A2D007E4B
:1003280004087E283854440000140800140840408B
:100338003A00002245495122244A522400000478F8
:1003480004007C1211127C7F494949317F4949498F
:10035800367F01010101407E41417F7F494941418A
:1003680077087F087722414949367F1008047F7E45
:100378001009047E7F08142241403E01017F7F025C
:1003880004027F7F0808087F3E4141413E7F01010A
:10039800017F7F090909063E4141412201017F0190
:1003A80001274848483F0E117F110E631408146353
:1003B8003F2020207F0F1010107F7F407C407F3F20
:1003C800203C207F017F4848307F4830007F7F48AD
:1003D800484830224149493E7F083E413E46291956
:1003E800097F304A4A3C403C4A4A30007E4A4A34F7
:1003F800007E02020200407C427E403C52520C00C9
:1004080076087E087624424A34007E10087E007CF6
:10041800100A7C007E081462007C02027E007E04C2
:1004280008047E7E08087E003C42423C007E0202B0
:100438007E007E12120C003C4242240002027E0220
:10044800020E50503E001C227E221C6214081462C8
:100458003E20203E600E10107E007E4078407E3E9A
:100468002038207E027E4848307E4830007E7E4814
:1004780048300024424A3C007E083C423C4C321240
:100488007E00000103070F1F3F7FFF00D8E8F0EE52
:10049800F2E03A003438B034359235379400C4EE7F
:1004A800EBE3EEF2E03A003434B03330923839946A
:1004B80000426B436F6C6F72000001002D4E414E7D
:1004C80000494E46000001007703C2040000F8947A
:1004D800EE27ECBBF1E0FBBFEBBFE5BF8DE0A2E090
:1004E800BB27ED938A95E9F780E094E0A0E6ED93C9
:1004F8000197E9F7EEECF4E085919591009761F0AA
:10050800A591B59105901590BF01F00105900D9248
:100518000197E1F7FB01F0CFEFE5EDBFE4E0EEBFB7
:10052800C0E6D1E000C02897E0E0E7BBE1E0E8BB27
:10053800E0E0E4BBE5BBE1BBE2BBE3BFE2BFEFBD8C
:10054800EEBDEDBDECBDE7BDE6BDEBBDEABDE9BD69
:10055800E8BDE2BDE5BDE4BDE3BDE9BFE5BFEAB97D
:10056800E0E8E8B9E0E0E0BFE6B9EDB9E6BFE6E209
:10057800F0E0E883F983E0E0EA83EB83EC83ED8342
:10058800EE81EC7FEE83E37EEC60EE83EF81E07832
:10059800E263EF83DE017BD0A4E9B4E0C0D3E9E1F4
:1005A800EA93E8E0EA93ACE9B4E0ACD3B0D4EFE086
:1005B800EA93A6EAB4E0A6D3E9E1EA93E7E1EA938D
:1005C800AFEAB4E09FD3E1E0E0937001A0D4E0E2A9
:1005D800EA93EAE2EA93A7E218D4E1E0E093600143
:1005E80096D4E9E2EA93A9EBB4E08CD32896FFCF3E
:1005F800089590D4AB9818E0FBDFE981E07811F01A
:10060800A89A01C0A898E981EE0FE983F1DFA99AB9
:10061800EFDFA998115081F7AB9A188118C4AA93F3
:10062800AA98A881E6DFA0C0AA93AA9AA881E1DFC8
:100638009BC070D4E98171D41E2FE4E5E19FF001DD
:10064800DF01EA816ED4E0937D01F0937E01E12F12
:1006580018813EC4AA93E981E06867D4E981EA93E6
:10066800A981E7DFE06461D4F2C3AA93E981EA9340
:10067800A981F0DFE0917D01F0917E0158D4E081FD
:10068800E6C3AA9357D4A881A083CEDF6DC05BD4FC
:1006980043D5A39AAB9AA19AA998A09AA29AA49A88
:1006A800AC98AAE0B0E0EFD4AC9A50D43097E1F01F
:1006B8004DD4E681E3701E2F49D4E681E695E69590
:1006C800E7700E2F43D4E781EF773E2FAC81BD81D1
:1006D800FCD43FD4AC81BD811296F7D43FD4AC8111
:1006E800BD811496F2D408C010E003E032E33BD495
:1006F80030D439D433D437D4E0937B01F0937C01E0
:10070800A1E28DDFE12FE46010D4E02FE0610DD489
:10071800E32FE0680AD4A0E282DFA1E01DD0E1E087
:10072800E0936001E0E0E0936101E1E0E0936601BD
:10073800E0936701E0936801EFEFE0936901E1E07E
:10074800E093700113D4EFEFEA93A8E0B0E068D328
:100758000DD0E1E0E8D458C0AA93E881E03011F068
:10076800ECE001C0E8E0E1D321960895D5D430E06B
:10077800E0916101E03009F03FEFC9D3A0E06ADF02
:1007880008EF11E0F80101501040309719F0A32F3D
:1007980078DFF8CFBCD3A0E0CBD2C5D4B6C3BAD3E8
:1007A800ED81EA93AD8161DF1E2FE981E73011F019
:1007B800E83031F4EB81EA93AA814BD3EB8308C08C
:1007C800E33021F4EB81E095EB8302C0E03021F4C3
:1007D800EA81E0951E2302C0E23029F4EA81AB8168
:1007E800EA231E2B0EC0E13029F4EA81AB81EA230B
:1007F8001E2707C0E43029F4EA81E095AB81EA2B93
:100808001E23A12F3EDF188126960895AA932397C9
:1008180081D4A889A43548F4AF85A03330F4AE85D7
:10082800A03019F0AD85A03009F488C1EE85E887BD
:10083800A889BB27EE859FD3A535E0E0BE0720F049
:10084800A889E4E5EA1BEE872D85AF85BB27ED85F2
:1008580092D3D19720F0AF85E0E3EA1BED87A98515
:10086800A63009F054C0EC85E13009F467C1E330E3
:1008780039F4E0917B01F0917C01309709F45EC175
:100888000885ED854AD33E2FE22FE77019F4AD8530
:100898002A17D9F0A02FBB27E32F71D3AA85BB85D0
:1008A800EA0FFB1F6FD3269526952695532F5F9346
:1008B8005F5FE22FAF91EA1740F0102FE12F115040
:1008C800E03011F062D3FACFF2CFAE850A17F9F013
:1008D800EE85AA85BB8525D355D3ED85E77009F04C
:1008E8003F5F20E02F932F5FE32FAF91AE1778F48F
:1008F8001E851F931F5FE02FAF91AE1710F445D3ED
:10090800F8CFEE85AE81BF810CD33CD3EBCFEF851A
:10091800E7703E2FED85E03009F410C1EA85FB85CC
:1009280031D310E00889303009F059C0AD85A830BE
:1009380008F450C0E985E03011F0E33009F402C052
:10094800E73009F402C0E83009F402C0E93009F4DC
:1009580002C0EA3019F425D37DDE04C0E63011F474
:1009680020D367DE1F9320D3AF91AE1760F5A9851A
:10097800A63031F41CD324D3DDD2A081ABD222C05F
:10098800E985E93011F450E00CC0EA3011F45FEF6A
:1009980008C00DD318D35E2FE985E73011F0E83091
:1009A80019F416D35E2F06C0E33011F4509502C037
:1009B800E03019F4A52F38DE05C00DD3EFEFEA9328
:1009C800AD85EDDECFCFEF85E85FEF87ED85E850A9
:1009D800ED87ADC05D8520E0E0E0ED8767C0E32FDF
:1009E800AD85AE0FA93020F42D85E0E0ED8703C07A
:1009F800E8E0E31B2E2F3A93A22F21D24E2FE98550
:100A0800E630B9F4CED215DE1F93CED2AF91AE1731
:100A180078F490D2E081E423AE2FE32F46D3E1D2DD
:100A2800E32FA42F42D3E7D2CBD2A52F53D2ECCFBA
:100A380022C0E93011F450E003C0EA3089F45FEFD6
:100A4800C7D2AE2FE32F29D35E2F1F93ADD2AF911C
:100A5800AE1728F4C0D24A93A0E0A1DEF6CF0BC0AF
:100A68001F93A2D2AF91AE1730F4C9D2AE2FE32FA5
:100A780014D3D2D2F5CFED85E03009F45FC0AD854F
:100A8800A83028F4ED85E21B5E2FE0E003C0532F69
:100A9800ED85E850ED8710E0EF85E85FEF87E8E047
:100AA800E31B2E2F0889EA85FB856CD2E52FF0E041
:100AB800E657FB4F4491E985E630B9F472D2B9DDC7
:100AC8001F9372D2AF91AE1778F434D2E081E42349
:100AD800AE2FE22FE2D285D2E22FA42FDED28BD224
:100AE8006FD2A52FF7D1ECCF22C0E93011F450E036
:100AF80003C0EA3089F45FEF6BD2AE2FE22FD5D274
:100B08005E2F1F9351D2AF91AE1728F464D24A9347
:100B1800A0E045DEF6CF0BC01F9346D2AF91AE17CB
:100B280030F46DD2AE2FE22FC0D276D2F5CFE88561
:100B3800AA85BB85F6D1EA87FB87ECCEF2D261960F
:100B480008956ED214F00FD282C16FD2A435E0E0BE
:100B5800BE071CF0E3E5F0E07AC1E881F98177C1CE
:100B68005FD214F000D273C160D2D0971CF0EFE2CC
:100B7800F0E06DC1E881F9816AC1E5D1239758D2C7
:100B88008F01002E012A11F4EED152C057D20F82E4
:100B980055D20E8253D20886EB85A885EA1710F441
:100BA800E2D146C0F8010F5F1F4F5491A885BB27BB
:100BB800EE27A50FBE1FEB85F0E0EA17FB0710F044
:100BC800D2D136C0EE81A9D14E2FEE81E77009F05F
:100BD8004F5FEF81E03081F0A985BA85EC93A88555
:100BE800EB85EA1BF0E0DF01EF81C9D1DF01E42FDB
:100BF800C6D1E00FF11F1CC09801E52FF0E00E0FE1
:100C08001F1FA885AF5FA887A150EB85AE1750F4CA
:100C1800F9012F5F3F4FA491B0E0E42FB0D10E0F40
:100C28001F1FEFCFF901E491A985BA85EC93F8016C
:100C380078D22C960895E0E0E0936201A0916301D8
:100C4800BB2701D298D1E091670195D189DFE09364
:100C580063010895AA932197EBD1309709F44EC008
:100C6800AF81AA3009F447C0EF81EA93DE011796F5
:100C780084DFAF01309711F454D2C5C0E09166010A
:100C8800AE81EA0F3E2FA0916201BB274AD18F01A6
:100C98000535E0E01E0718F0032F1127CCDFE0919F
:100CA8006201D8D1E885EA93CED1EA93E1E0EA93EC
:100CB8005A934A93A7E0AADDE0916201AE81EA0F58
:100CC800C9D1E0916601EA93BED1EA9320D1C7D198
:100CD800E0916201EA93A0916301B5D1EA0FEA932A
:100CE8003A93E0916701EA9312D1B9D1E4E5F0E0D3
:100CF800E017F10719F49FDF14D285C00093620151
:100D080010D281C020D11A93EC81EA93AC8110D023
:100D1800AAD119F0A12F9EDFFBCF18818EC013D165
:100D28001A93A1D119F0A12F95DFFBCF1881D0C05C
:100D3800AA93A981BB2705DFE0936201A881BB279D
:100D48000FDFE093630183C0FED0E4D1EE81FF8121
:100D5800138101813281AE81BF812C91011718F472
:100D6800502F012F152F231718F4522F232F352F0B
:100D7800E12FAE81BF811396EC93E32FAE81BF8143
:100D88001296EC93E02FAE81BF811196EC93AE8161
:100D9800BF812C93C6D137C0AA93BED1AF81A435E9
:100DA80018F4AE81A03308F02DC0ED81E03019F0C1
:100DB800EC81E03009F426C03E81E32FAC81EA0FD4
:100DC800EC83EF81AD81EA0FED83EC813E17D0F41F
:100DD800E31B2E2F293008F028E01F81ED811E1714
:100DE80078F4E11B0E2F093008F008E01A933A93C3
:100DF8000A932A938CD0BAD0A8E008DD100FEECF62
:100E0800320FE3CF90D128960895AA93DE019CDF94
:100E1800EB81EA93EB8131D130D1AE2FBDDF75C0C4
:100E280092D0B981A881109631F0FC81EB816A815A
:100E380061931197E9F7EB81FC8125960895AA93B0
:100E4800E881F0E0E657FB4FA491E98126D122968C
:100E5800089560D0E981E73011F0EA3019F4109173
:100E6800600109C0E93019F41091610104C0E8304B
:100E7800A1F410917001E0916101E03049F0103067
:100E880019F0EFEF188124C0EA81E095188120C09D
:100E9800103019F4E0E018811BC0EA81188118C0ED
:100EA80052D0EA81E13021F4E881F981E49110C05F
:100EB800E23019F4BAD00DD10BC0E33039F4B5D013
:100EC800E0917901F0917A01099502C0AED0EC91D8
:100ED80023960895AA93EB81E03029F4E881A9814B
:100EE800BA81EC9312C0E23029F4E881A981BA8171
:100EF800FCD00BC0E33049F4E981FA8161D0AA81C2
:100F0800E0917B01F0917C01099524960895E0E039
:100F1800EA930895AA931A930895E695E695E695B7
:100F28000895F0E0EA0FFB1F0895AE2F78CBE15843
:100F3800FE4F0895ADE7B1E0ED91FD913196FE9336
:100F4800EE933197F4CFBA93AA930895EC81FD817B
:100F58000895E0936401F09365010895E0937901A1
:100F6800F0937A010895E0E0F0E00895E1E7F1E018
:100F7800FA93EA930895F0E0AE0FBF1F0895F0E0EA
:100F88009CD00895EE83FF830895EC85EA93EF8162
:100F9800F8853196EF83F8873197FA93EA93A0E0C2
:100FA80099CF0A93A88908951F5FEE850895EC8567
:100FB800EA93EF81F8853196EF83F88731970895A2
:100FC800FA93EA93089566277727DF01CB0168CF64
:100FD8005A93AA853ECF0A930395E889EA935A93D0
:100FE80008955E2FEC85EA93AF81B8858827992705
:100FF80057DF1E2E0895E095E1215E2BD8CF0A9386
:101008000395E889EA93EE85EA93E985FA853196AE
:10101800E987FA873197D7CFEA934A93AD85BFCB53
:1010280092DFA881B98172D00895A881B981089505
:1010380071D0E0916401F09165010895F8010F5FA6
:101048001F4F04900895E0916401F0916501319675
:10105800E4910895EA93E0916301EA93089583DFA8
:10106800AFDFA9E0D3CBE981FA813196E983FA832E
:101078003197E4911E2FE0300895EA93AD81EB811A
:10108800EA1BEF5F0895109639F080EA9FE0019718
:10109800F1F7A8951197C9F70895EE230E2EEA2FB8
:1010A80019F0EE0F0A94E9F70895EE230E2EEA2FB1
:1010B80019F0E6950A94E9F70895FA9FF02DEB9F49
:1010C800F00DEA9FE02DF10D0895ED91FC91119737
:1010D8000895E199FECFFF93FFB7F894AEBBBFBB6D
:1010E800E09AEDB3FFBFFF910895E19B02C0A89578
:1010F800FCCF9FB7F894AEBBBFBBE09A8DB3E8179F
:1011080019F0EDBBE29AE19A9FBF089500240A16F0
:101118000B0608955A934A933A932A931A930A937B
:1011280008955D814C813B812A8119810881089548
:00000001FF
