:0E00000012C02EC0FDCFFCCFFBCFFACFF9CF40
:10000E0029C0F7CFF6CFF5CFF4CFF3CFF2CFF1CFA4
:10001E00F0CFEFCFEECFEDCFF894EE27ECBBF1E0C3
:10002E00FBBFEBBFE5BFF8E1F1BDE1BD8DE0A2E0A6
:10003E00BB27ED938A95E9F780E094E0A0E6ED9377
:10004E000197E9F7EFE5EDBFE4E0EEBFC0E6D1E0E2
:10005E0087C01895AA93BA93EA93FA93EFB7EA93E7
:10006E00E0916001F0916101E530A0E0FA0749F4FA
:10007E00E0E0F2E0FBBDEABDE5E2F0E0F9BDE8BD8F
:10008E0061C0E930A0E0FA0749F4EFEFF3E0FBBD01
:10009E00EABDEBE4F0E0F9BDE8BD54C0EA33A1E0FF
:1000AE00FA0749F4E0E0F2E0FBBDEABDE5E2F0E07C
:1000BE00F9BDE8BD47C0E034A1E0FA0749F4E0E03D
:1000CE00F2E0FBBDEABDE5EBF1E0F9BDE8BD3AC0FB
:1000DE00E534A1E0FA0749F4E0E0F2E0FBBDEABD49
:1000EE00E5E2F0E0F9BDE8BD2DC0EA34A1E0FA0783
:1000FE0049F4EFEFF3E0FBBDEABDEBE4F0E0F9BD50
:10010E00E8BD20C0EB37A2E0FA0749F4E0E0F2E0E8
:10011E00FBBDEABDE5E2F0E0F9BDE8BD13C0E03895
:10012E00A2E0FA0779F4E0E0F2E0FBBDEABDE5EB10
:10013E00F1E0F9BDE8BDE1E0F0E0E0936001F0939D
:10014E00610107C0A0E6B1E0ED91FD913196FE93FD
:10015E00EE93E991EFBFF991E991B991A9911895B3
:10016E00E4E0E7BBE0E0E8BBE4BBE5BBE1BBE4E019
:10017E00E2BBE0E0E3BFE2BFE3E3EFBDE9E1EEBDEA
:10018E00E0E0EDBDECBDE7BDE6BDEBBDEABDE9BD12
:10019E00E8BDE2BDE5BDE4BDE3BDE8E0E9BFEBB718
:1001AE00E064EBBFE3E0E5BFE0E4EABFE0E0EAB91C
:1001BE00E0E8E8B9E0E0E0BFE6B9EDB9E6BFE1E0BE
:1001CE00F0E0E0936001F0936101E5EBF1E0F9BD41
:1001DE00E8BDE0E0F2E0FBBDEABD7894FFCFFFCFD3
:00000001FF
