:0A00000021C0FECFFDCFFCCFFBCFE7
:10000A00FACFF9CFF8CFF7CFF6CFF5CFF4CFF3CFBA
:10001A00F2CFF1CFF0CFEFCFEECFEDCF3F065B4F70
:10002A00666D7D077F6F777C395E797140000001CC
:10003A0002031100600126000000F894EE27ECBBD1
:10004A00F1E0FBBFEBBFE5BF8DE0A2E0BB27ED937C
:10005A008A95E9F780E094E0A0E6ED930197E9F745
:10006A00ECE3F0E085919591009761F0A591B59147
:10007A0005901590BF01F00105900D920197E1F7E7
:10008A00FB01F0CFEFE5EDBFE4E0EEBFC0E6D1E063
:10009A007EC1AA931A9310E0183098F4C098E981A7
:1000AA00E17011F0C19A01C0C19888E08A95F1F710
:1000BA00E981E695E983C09A88E08A95F1F71F5F9E
:1000CA00EBCFC0988DE08A95F1F7B998B199FECF38
:1000DA00B99A9ED1C09854C0C09AC19A9ED1089527
:1000EA00C0989BD185E08A95F1F792D1C19A08957B
:1000FA00BA93AA93BDD3E1E0E71511F410E801C061
:10010A0010E000E00430C0F48DD1AC91AF3711F4A7
:10011A0089D10BC0E02FAA81BB81F0E0EA0FFB1F57
:10012A000F0180D1EC9184D1D001EC937BD1EC9179
:10013A00E058EC930F5FE6CFE1E0E61519F4E3E04F
:10014A00E91509F40AC0AA81BB81EE27A90DBE1FD1
:10015A00EC91E058EC93E3E09E2E8FD32496089519
:10016A00AA931A93E1E0E71511F410E801C010E030
:10017A00A981AF3711F4E12F02C0E98159D1E9838E
:10018A00188122960895BA93AA9324971A9310E095
:10019A00143070F453D1EA0FFB1F0F01AD81BE81F9
:1001AA00EE27A10FBE1FEC91D001EC931F5FF0CF99
:1001BA00DE0111969DDF90DFA0E445D18DDFA52DEC
:1001CA0068DF10E0143038F439D1AE0FBF1FAC919C
:1001DA0060DF1F5FF7CF84DF7FDFA42D34D1188162
:1001EA0027960895AA931A93A981BADF1E2F74DF5E
:1001FA00A4E429D171DFEA81E06CAE2F4ADFA12F96
:10020A0022D16ADFA42D1FD11881BFC0BA93AA9345
:10021A0024971BD1A031E7E2BE072CF416D1A931ED
:10022A00ECEFBE070CF437C0AD81AA23AAF4E0E1D3
:10023A00E883EC81FD81E095F095319609D10BD1E7
:10024A000DD112D114D139F0E981E03021F417D15E
:10025A0011F4E1E1EA831BC0F8D0E8EEF3E0C8D27A
:10026A00E883F3D0E8EEF3E0C8D2F2D0F4D0F6D0C7
:10027A00FBD0FDD061F0E881E03049F4E1E1E883A8
:10028A00E981E03021F4FBD011F4E1E1EA83E1E015
:10029A008E2EDE0178DF26960895CBD2E7D2F4D0EF
:1002AA00E0E0FCE36CE176E45AD209F008F401C01C
:1002BA0049C0EAD0E0E0F0EC69E774EC50D208F407
:1002CA0041C0E2D0CDD2DCF433E0313060F0DCD092
:1002DA00E0E0F0E06AE774E442D210F4DAD001C058
:1002EA0002C03150F2CFE0D0F801CED064D264D14E
:1002FA00E2D009F008F402C00F5F1F4F1FC033E0BD
:10030A00323070F0C1D0E0E0F0E068EC72EC27D255
:10031A0009F008F402C0BDD001C002C03150F0CFCC
:10032A00C3D0EC81FD816E817F81D80149D288D208
:10033A00C2D009F008F402C001501040932E88245C
:10034A00D80164DF98D228960895E0E0BED0E1E0B3
:10035A00BCD0E2E0BAD0E3E0B8D00895AA93E7B3FC
:10036A00E360E7BB6880E1E08E2EE61511F47E2E8D
:10037A0001C07724E3E09E2EE8DF21960895AA9330
:10038A005880EA81A981EA0F4E2E23960895E3E068
:10039A00E7BBE8BBE0E0E4BBE5BBE1BBE2BBE3BF34
:1003AA00E2BFEFBDEEBDEDBDECBDE7BDE6BDEBBD09
:1003BA00EABDE9BDE8BDE2BDE5BDE4BDE3BDE9BF17
:1003CA00E5BFEAB9E0E8E8B9E0E0E0BFE6B9EDB9CF
:1003DA00E6BFA1E0C3DFE2E0EA93E8E8EA93A0EC33
:1003EA00CEDFB3DFA8ECB0E077D0E2E0EA93A3E097
:1003FA00F9DE6ED0ABE8B0E109DF6AD0AAE9B9E963
:10040A0089E791E44ADFA0EDB7E066D0FFCFFFCFDE
:10041A00C09A85E08A95F1F7089585E08A95F1F703
:10042A00C1980895AA81BB81EE27A00FBE1F089527
:10043A00F0E0E05AFE4FE081E10F0895E12FF0E08D
:10044A00DE011196089525DE4BCEAC81BD8108955B
:10045A00EC83FD83FACFE4E6F0E00895C9D1E9839D
:10046A00F4DFF9DFCAD1F4CFEAE0F0E00895C0D1B1
:10047A00EA83EBDFF9DFC1D1EB8388200895E1E15C
:10048A00E983EA81E0300895AC81BD818E819F8144
:10049A000895FADFE0E0F0E060E271E412D1EC8363
:1004AA00FD836E837F830895EC81FD816E817F8158
:1004BA004CD08F010895C7D1B2D0DF01CB01E0E063
:1004CA00F0E060E07FE34BD10895EA93A1E18ACEA0
:1004DA00A0EDB7E001D039CF109639F080ED97E062
:1004EA000197F1F7A8951197C9F70895552342F492
:1004FA00503811F4E0FF04C03196691F791F6BF080
:10050A0050E8572711F45F93CAC05F3F31F0660F76
:10051A00000C57956795752F08955F9300200AF090
:10052A00CAC0C3C050E8192E1522880F991F9527F3
:10053A00550F879550E8072E0522660F771F7527F6
:10054A00550F67950895689401C0E8945F93F2DFA8
:10055A00703818F07F3F08F4A2C056E1571BAAF47E
:10056A00519558300EF4593030F0EFEFFFEF6FEF3E
:10057A007FE777F91AC077275523B9F0EE0FFF1FE7
:10058A00661F771F5A95D1F710C07727583028F081
:10059A00EF2FF62F672F5850F9CF552331F0769564
:1005AA006795F795E7955A95D1F700200AF4FBD09D
:1005BA005F910895689401C0E89430976040704054
:1005CA00B1F0002426F0772312F40094ECD0172E11
:1005DA007EE1112032F07A95EE0FFF1F661F111C83
:1005EA00F9CFEF2FF62F612D5F938ADF5F91089580
:1005FA004F93AF01FD01DA01AB01BC01CA01402DE5
:10060A00012C142E4F910895EA0FFB1F681F0895BD
:10061A00E095F0956095EF5FFF4F6F4F08955F93F8
:10062A0081DF903849F150E81526703821F1572FAB
:10063A00591B2BF112F4DCDFFACF583118F0AA2734
:10064A00BB278827583028F0AB2FB82F8827585057
:10065A00F9CF552329F08695B795A7955A95D9F7D5
:10066A00502D512572F0D0DF38F46795F795E7954C
:10067A00739513F420C0BCDF43DF5F910895D8F768
:10068A00FBCFEA1BFB0B680B51F010F40094C0DFA0
:10069A00662392F3EE0FFF1F661F7A95CBF7EE27BC
:1006AA00FF27662777275F910895EFEFFFEF6FE740
:1006BA007FEF5F910895EFEFFFEF6FE77FE75F91BD
:1006CA0008955F932FDF703851F3903841F3012476
:1006DA000894791F23F41CF300203AF3ECCF0F920D
:1006EA001F932F933F934F93112722279927689F90
:1006FA00A0018F9F302D410D591F6B9F300D411D59
:10070A00591F8E9F27D0BF9F25D06A9F23D0BE9F97
:10071A001DD0AF9F1BD0AE9F110D291F391F491F36
:10072A00591FE32FF42F652F522F4F913F912F918D
:10073A001F910F9066232AF0550FEE1FFF1F661FA9
:10074A0002C073954BF2D2DE5F910895100D211D00
:10075A00391F02C0200D311D491F591F08959923C1
:10076A009AF0772342F0971748F029F4AE17BF079B
:10077A00860720F031F09894889408959894089404
:10078A0008951894889408957723C2F7971798F3D1
:10079A00A9F7EA17FB07680788F399F3ECCFF195F5
:1007AA00E195F0400895F09560957095E195FF4FB9
:1007BA006F4F7F4F08956F2F660F660B762F089540
:1007CA008B2F880F880B982F08950024112490E10D
:1007DA00AA0FBB1F001C111C0E1A1F0A18F40E0EBA
:1007EA001F1E01C0A1609A9599F7FD01D0010895D5
:1007FA0012D0EBDF0EF4D3DF0895E894B7FF04C0FC
:10080A00A095B09511966894F7FDC9DFDEDFFD016A
:10081A000EF4C5DF0895E894F7FF02C0C0DF6894BC
:10082A00B7FF06C0A095B095119600F8039400FA98
:10083A0008959A938A93BA93AA930895689401C0E3
:10084A00E89401D0BADE182E862F612D192E972F23
:10085A00712D1B2EBF2FF12D1A2EAE2FE12D0895CB
:10086A0000240A160B060806090608953A932A93E5
:10087A001A930A9308953B812A8119810881089560
:00000001FF
