:060000003EC0FECFFDCF63
:10000600FCCFFBCFFACFF9CFF8CFF7CF61C0F5CF52
:10001600F4CFF3CFF2CFF1CFF0CFEFCFEECFEDCFDE
:100026007F0053656C656374206E756D203D2000FE
:100036005772697465206E756D203D2000526561AA
:1000460064206E756D203D20000001002D4E414E4E
:1000560000494E46000080C001000A0026000D003F
:10006600600136000C006D01430001007A0150006A
:1000760002007E015C000000F894EE27ECBBF1E084
:10008600FBBFEBBFE5BF8DE0A2E0BB27ED938A95F2
:10009600E9F780E094E0A0E6ED930197E9F7EEE555
:1000A600F0E085919591009761F0A591B591059045
:1000B6001590BF01F00105900D920197E1F7FB0144
:1000C600F0CFEFE5EDBFE4E0EEBFC0E6D1E07FC0E4
:1000D6000A921A92FA926A937A938A939A93AA93B5
:1000E600BA93EA93FA93EFB7EA93EEECE2BF0ED037
:1000F600E991EFBFF991E991B991A9919991899106
:1001060079916991F990199009901895E6B3E37081
:100116005E2E451409F440C0E42DF0E0E230A0E084
:10012600FA0741F4E3E0E51509F46394552009F470
:10013600939423C0309749F4E2E0E51509F46394FB
:10014600E1E0E51509F4939418C0E130A0E0FA0760
:1001560041F4552009F46394E3E0E51509F493941A
:100166000CC0E330A0E0FA0741F4E1E0E51509F43C
:100176006394E2E0E51509F49394452CE4E06E16E9
:1001860010F0A3946624E4E09E1610F0AA94992435
:10019600EFEFEA1508F4AE2E0895E8D0A8E2B0E035
:1001A60015D153D10895AA931A9359D17BD1A1EAB7
:1001B600ADD1A0E090D11E2F84D1E12F1881D4C0FB
:1001C600AA934DD1A881A2D17CD150D1CDC0E0E077
:1001D600E7BBEFE0E8BBE3E0E4BBE0E0E5BBEFE76D
:1001E600E1BBE0E0E2BBE3E0E3BFEEECE2BFE0E070
:1001F600EFBDEEBDEDBDECBDE7BDE6BDEBBDEABDB9
:10020600E9BDE8BDE2BDE5BDE4BDE3BDE1E0E9BFB2
:10021600E0E0E5BFEAB9E0E8E8B9E0E0E0BFE6B96A
:10022600EDB9E6BF3AD1A0E1E4D078947A1411F0A2
:10023600B4DF7A2CB29914C019D1A0E0B29BA1E028
:10024600E82DE095EA2359F0E2E1EA93AA2DB8DF1A
:1002560010D1A0E6B1E0ABD0F8D0E1E08E2E01C01F
:100266008824B3991AC002D1A0E0B39BA1E0EB2D7C
:10027600E095EA2389F0FDD0ADE6B1E098D0A2E1A1
:1002860092DFF0E0FA93EA93A9E7B1E009D0A9E793
:10029600B1E08DD0E1E0BE2E01C0BB24C7CFFFCFB9
:1002A600BA93AA93A991B991E991F99130962AF452
:1002B600E095F09531966DE26D93E89480E197E2D2
:1002C6000DD088EE93E00AD084E6992707D08AE01D
:1002D60005D06E2F10D066276C9308956627E81711
:1002E600F90720F06395E81BF90BC9F7662311F4AB
:1002F60016F008956894605D6D930895AA93E88159
:10030600E07111F0939A01C09398E881E07211F0C0
:10031600949A01C09498E881E07411F0959A01C00E
:100326009598E881E07811F0969A01C09698A6D043
:10033600929AA4D09298A2D086C0AA93A881DEDF12
:10034600E881E295E883A881D9DF85E88A95F1F707
:100356007AC0AA93E881F0E0E258FE4FE081A981D5
:10036600AE0FEBDFD980C88022960895A2E08AD02E
:10037600ACE0E3DFA1E086D0E0E0CE2EDE2E0895ED
:10038600AA93A881AA3021F0E0918201DE1648F0F6
:10039600E0E0EA93C394AC2DDCDFA881AA3009F42F
:1003A60052C0D394909AA881C8DF90984CC0BA9353
:1003B600AA931A93A981BA81ED91A983BA831E2FB4
:1003C600E03019F0A12FDCDFF5CF10C0BA93AA9365
:1003D6001A93E981FA813196E983FA833197E49198
:1003E6001E2FE03019F0A12FCBDFF3CF1881239613
:1003F6000895AA938B9A8C9A8D9A8E9A8A9A889A3D
:10040600899A929890989198E881E0938201E058B1
:10041600E0938001E881E054E0938101A4E1B0E03B
:100426008DD034D033D032D0A0E268DF88EC90E0B3
:100436000197F1F7A8E281DFA4E07FDFA5E87DDF81
:10044600A6E07BDF93DF21960895EA2DF0E0FA938C
:10045600EA93A9E7B1E024DFA9E7B1E0A8CF22D06B
:10046600A0EA54D0A0E052D0A98150C0AAE0B0E0E2
:1004760065C07CDFE0E0EA93A1E06BCF8DE08A9572
:10048600F1F708955ADFA3E0B0E058C0A0E336DFE5
:1004960088EC90E00197F1F70895A998A898A19A99
:1004A600A09815C0A098A198EE270000989B0895E3
:1004B600999B089504D0A09A02D0A19AE1E06DE03C
:1004C60007C0A09AA19A03D0A198F9DFA0986BE182
:1004D6006A95F1F7089578E0A198F1DF999BFECF30
:1004E600EEDF889498990894A19AF1DFEE1F7A9529
:1004F60099F77A2F772311F4A09801C0A09ADFDF2D
:10050600A198E5DFA19ADBDFA098D9CF78E0AA0F02
:1005160010F4A09801C0A09ADADFA198D0DF999BC9
:10052600FECFCDDFA19A7A9591F7A098C8DFA19862
:10053600CEDFE1E09899EE27A19AC1CF109639F067
:1005460080ED97E00197F1F7A8951197C9F70895FF
:00000001FF
