:040000004CC0FECF23
:10000400FDCFFCCFFBCFFACFF9CFF8CFF7CF6FC03E
:10001400F5CFF4CFF3CFF2CFF1CFF0CFEFCFEECFD8
:10002400EDCF00000000402001020304050607088C
:10003400090A0C0E10121416181A1C1E202224264B
:10004400282A2C2E30323436383A3C3F4245484B2D
:100054004E5154575A5D6063605D5A5754514E4B2C
:100064004845423F3C3A38363432302E2C2A282632
:100074002422201E1C1A18161412100E0C0A090829
:1000840007060504030201000600040026005F00C1
:1000940060012C000000F894EE27ECBBF1E0FBBFFC
:1000A400EBBFE5BF8DE0A2E0BB27ED938A95E9F7AE
:1000B40080E094E0A0E6ED930197E9F7ECE8F0E046
:1000C40085919591009761F0A591B5910590159052
:1000D400BF01F00105900D920197E1F7FB01F0CF0C
:1000E400EFE5EDBFE4E0EEBFC0E6D1E02AC0EA935D
:1000F400FA93EFB7EA93E0EBE2BFE3E6E515D9F450
:100104005524F30131963F01EEE1F0E0E615F705E1
:1001140089F466247724439493948394EFE5E41557
:1001240009F44424EFE5E91509F49924EFE5E81509
:1001340009F4882401C05394E991EFBFF991E9913E
:100144001895E7E0E7BBE8BBE0E0E4BBE5BBE1BB57
:10015400E2BBE2E0E3BFE0EBE2BFE0E0EFBDEEBD17
:10016400EDBDECBDE7BDE6BDEBBDEABDE9BDE8BD57
:10017400E2BDE5BDE4BDE3BDE1E0E9BFE0E0E5BF2C
:10018400EAB9E0E8E8B9E0E0E0BFE6B9EDB9E6BF16
:100194007894552019F4E8B3E760E8BBE42DF0E067
:1001A400E05AFE4FE081E51509F4C098E92DF0E02E
:1001B400E05AFE4FE081E51509F4C198E82DF0E01E
:1001C400E05AFE4FE081E51509F4C298E2CFFFCF73
:00000001FF
