:0E0000008DC2FECFFDCFFCCFFBCFFACFF9CFE4
:10000E00F8CFF7CFF6CFF5CF66C3F3CF9CC3F1CFC2
:10001E00F0CFEFCFEECFEDCF050720E000000000D0
:10002E000000005F00000007000700341C361C169D
:10003E0022457F512222152A54223649552350003B
:10004E0000070000001C2241000041221C00120C7F
:10005E001E0C1208083E0808004020000000080888
:10006E000800000040000020100804023E414141FB
:10007E003E0002417F404261514966224149493664
:10008E001814527F4027454545393E49494932614A
:10009E00110905033649494936264949493E0000AA
:1000AE002200000040220000000814220000141458
:1000BE001400002214080000025905023E49555949
:1000CE002E7C1211127C7F494949363E4141412214
:1000DE007F4141413E7F494949417F090909013E1E
:1000EE00414151327F0808087F00007F0000204008
:1000FE00403F007F081422417F404040407F020471
:10010E00027F7F0204087F3E4141413E7F0909097B
:10011E00063E4141215E7F09192946224549512259
:10012E0001017F01013F4040403F1F2040201F3F03
:10013E00403C403F63140814630708700807615180
:10014E00494543007F41410002040810200041410F
:10015E007F0000020102000040404000000102004A
:10016E000020545438407E484830003C424224001F
:10017E003048487E003C4A4A2C0000107C12040C89
:10018E0052523C007E1008700000007A00000040C1
:10019E003A00007E1028440000007E00007C0478A7
:1001AE0004787C080478003C42423C007E12120C1B
:1001BE0000001C22127E7E04020400244A522400F7
:1001CE0000083E48203E40403E001E60601E003E3D
:1001DE004038403E44281028444628100E006252F3
:1001EE004A4600083641000000007F000000004132
:1001FE0036080201020100003E223E0000027E2A65
:10020E0030007E020302004020000000780C08003F
:10021E004020402000004040400000047E040000CA
:10022E00247E2400143C56422426166864627E0105
:10023E007F483000081400007F087F48307E081584
:10024E002240027E0A0A703F2060203F021F4A4A67
:10025E003000010200000002010000000102010254
:10026E000002010201040E0E040000080808000836
:10027E00080808000000000000020E02040E7804B8
:10028E007C502000140800007C107C50207C102A2A
:10029E0040007E241060003C20603C000000000006
:1002AE00000E5051503E0E50513E002040403E0038
:1002BE0000140814007E02020300000077000020E4
:1002CE004A5529027E4B4A43423C5A66423C3E49BD
:1002DE0049412208140008140404040C0000080804
:1002EE0008003E7D55693E00027C020000020502B8
:1002FE000000242E240000007C000000007400008A
:10030E000078080C007E20201E200E7E027E00004B
:10031E00000200003D4A4A2D007E04087E28385413
:10032E00440000140800140840403A0000224549D9
:10033E005122244A52240000047804007C12111227
:10034E007C7F494949317F494949367F0101010185
:10035E00407E41417F7F4949414177087F0877229E
:10036E00414949367F1008047F7E1009047E7F08BC
:10037E00142241403E01017F7F0204027F7F080864
:10038E00087F3E4141413E7F0101017F7F090909FE
:10039E00063E4141412201017F0101274848483F65
:1003AE000E117F110E63140814633F2020207F0F5F
:1003BE001010107F7F407C407F3F203C207F017FCC
:1003CE004848307F4830007F7F48484830224149B6
:1003DE00493E7F083E413E462919097F304A4A3C34
:1003EE00403C4A4A30007E4A4A34007E02020200F5
:1003FE00407C427E403C52520C0076087E087624A9
:10040E00424A34007E10087E007C100A7C007E0872
:10041E001462007C02027E007E0408047E7E0808C0
:10042E007E003C42423C007E02027E007E12120C96
:10043E00003C4242240002027E02020E50503E0058
:10044E001C227E221C62140814623E20203E600E86
:10045E0010107E007E4078407E3E2038207E027E48
:10046E004848307E4830007E7E4848300024424A5C
:10047E003C007E083C423C4C32127E0000010307D9
:10048E000F1F3F7FFF001027E80364000A000100E2
:10049E000010000110000100000000000000CEF866
:1004AE00E8E1EAE020E4E0EDEDFBF500CDE5F22039
:1004BE00F1E8E3EDE0EBE00020D1EFF3F2EDE8EA56
:1004CE00EEE22000EEE1EDE0F0F3E6E5EDEE00D831
:1004DE00E8F0EEF2E03A00C4EEEBE3EEF2E03A00C2
:1004EE00483A00205361743A005554433A000100D3
:1004FE002D4E414E00494E46000001000200A6045A
:10050E0004000400A8040100D903FC040000F894C0
:10051E00EE27ECBBF1E0FBBFEBBFE5BF8DE0A2E049
:10052E00BB27ED938A95E9F780E094E0A0E6ED9382
:10053E000197E9F7E8E0F5E085919591009761F074
:10054E00A591B59105901590BF01F00105900D9202
:10055E000197E1F7FB01F0CFEFE5EDBFE4E0EEBF71
:10056E00C0E6D1E007C1AA9391D600E010E01515C0
:10057E0068F466D5AC3209F40F5FEA81E01721F416
:10058E00E12FEF5F8AD63DC51F5FF1CFE0E085D644
:10059E0038C5AA937BD6EA81E03031F4EDD1ACEACE
:1005AE00B4E0C2D47AD62DC5A6E050D552D5A0332C
:1005BE00C1F4E2D1AAEBB4E0B7D4A7E047D54DD54C
:1005CE0064D1EFE0EA93E8E0EA93A6ECB4E09FD4BE
:1005DE00EAE0EA93EFE0EA93A2EDB4E098D45DD6B8
:1005EE0010C5CAD1ADEDB4E09FD43BD5A8E0A5D4DB
:1005FE00A2E03AD53DD539963ED554F441D543D5F2
:10060E00129711F4A0EB2CD41BD52AD41F5FF2CF76
:10061E00A3E01CD51ED524D424D5EFE0EA93A5EE95
:10062E00B4E075D41ED5A7E188D4A4E01DD520D59D
:10063E003A9621D554F424D526D5139711F4A0EB70
:10064E000FD4FED40DD41F5FF2CFA5E0FFD401D599
:10065E0007D407D5E0E2EA93AEEEB4E058D4A9E0B1
:10066E0082DF0E2F05D5F5D4AC3229F001D5F1D4A9
:10067E00F7D30F5FF7CFACEEF3D3A1EFB4E054D4C2
:10068E00A7E071DF0E2FF4D4E4D4EAD3F1D4E5D48D
:10069E00AC3219F0EDD4E1D4E3D3E3D4E9E2EA933A
:1006AE00A7EFB4E034D4A1E0DFD4E2D43696E3D49D
:1006BE0074F4E6D4E8D4129721F0E2D4E4D414977B
:1006CE0011F4AAE3CDD3BCD4CBD31F5FEECFE5D5C7
:1006DE0098C4E1E008950A921A92FA926A937A9374
:1006EE008A939A93AA93BA93EA93FA93EFB7EA93FB
:1006FE001A931BB1E12FEC71A1F45524C7D45F9B63
:10070E00FECFC4D4E52DF0E03197A3D4AA3019F072
:10071E00EAE55E1608F001C0F2CFEAE5E51509F448
:10072E005524D7DFAE2F35DF1991E991EFBFF9913F
:10073E00E991B991A9919991899179916991F990DC
:10074E00199009901895EA93FA93EFB7EA937720E8
:10075E0061F07A94E42D4394F0E0E952FE4FE0818B
:10076E00ECB9E8E0E41509F44424E991EFBFF991FE
:10077E00E99118952897E0E0E7BBE8BBE4BBE5BB41
:10078E00E1BBE2BBE3BFE2BFEFBDEEBDEDBDECBD35
:10079E00E7BDE6BDEBBDEABDE9BDE8BDE2BDE5BD29
:1007AE00E4BDE3BDE9BFE5BFEBB9E8EDEAB9E6E8C4
:1007BE00E0BDE0E0E0BDE7E6E9B9E0E8E8B9E0E099
:1007CE00E0BFE6B9EDB9E6BFE6E2F0E0E883F98313
:1007DE00E0E0EA83EB83EC83ED83EE81EC7FEE8346
:1007EE00E37EEC60EE83EF81E078E263EF83DE017F
:1007FE0052D07894FFCFFFCF089550D4AB9818E025
:10080E00FBDFE981E07811F0A89A01C0A898E98190
:10081E00EE0FE983F1DFA99AEFDFA998115081F766
:10082E00AB9A1881ADC3AA93AA98A881E6DFA2C09D
:10083E00AA93AA9AA881E1DF9DC030D4E98131D470
:10084E001E2FE4E5E19FF001DF01EA812ED4E09353
:10085E00DF01F093E001E12F1881D3C3AA93E98160
:10086E00E06827D4E981EA93A981E7DFE06421D427
:10087E0087C3AA93E981EA93A981F0DFE091DF01B2
:10088E00F091E00118D4E0817BC3AA9317D4A8811C
:10089E00A083CEDF6FC01BD4F7D4A39AAB9AA19AD4
:1008AE00A998A09AA29AA49AAC98AAE0B0E0A3D470
:1008BE00AC9A10D43097E1F00DD4E681E3701E2F80
:1008CE0009D4E681E695E695E7700E2F03D4E7810D
:1008DE00EF773E2FAC81BD81B0D4FFD3AC81BD810B
:1008EE001296ABD4FFD3AC81BD811496A6D408C0AA
:1008FE0010E003E032E3FBD3F0D3F9D3F3D3F7D315
:10090E00E0937B01F0937C01A1E28DDFE12FE460A7
:10091E00D0D3E02FE061CDD3E32FE068CAD3A0E2BD
:10092E0082DFA1E01FD0E1E0E0936001E0E0E09320
:10093E006101E1E0E0936601E0936701E0936801F5
:10094E00EFEFE0936901E1E0E0937001E1E7F1E0A0
:10095E00D1D3EFEFEA93A8E0B0E0FBD20DD0E1E007
:10096E009AD458C0AA93E881E03011F0ECE001C0AF
:10097E00E8E09FD32196089587D430E0E09161019D
:10098E00E03009F03FEF6DD3A0E068DF08EF11E033
:10099E00F80101501040309719F0A32F76DFF8CFF1
:1009AE0060D3A0E0CAD277D449C378D3ED81EA935D
:1009BE00AD815FDF1E2FE981E73011F0E83031F4B1
:1009CE00EB81EA93AA81DED2EB8308C0E33021F4F7
:1009DE00EB81E095EB8302C0E03021F4EA81E095F3
:1009EE001E2302C0E23029F4EA81AB81EA231E2BDA
:1009FE000EC0E13029F4EA81AB81EA231E2707C03D
:100A0E00E43029F4EA81E095AB81EA2B1E23A12F75
:100A1E003CDF188126960895AA93239733D4A8898C
:100A2E00A43548F4AF85A03330F4AE85A03019F06C
:100A3E00AD85A03009F488C1EE85E887A889BB276B
:100A4E00EE855BD3A535E0E0BE0720F0A889E4E58E
:100A5E00EA1BEE872D85AF85BB27ED854ED3D1974B
:100A6E0020F0AF85E0E3EA1BED87A985A63009F0FB
:100A7E0054C0EC85E13009F467C1E33039F4E091FC
:100A8E007B01F0917C01309709F45EC10885ED85FC
:100A9E0008D33E2FE22FE77019F4AD852A17D9F04F
:100AAE00A02FBB27E32F2DD3AA85BB85EA0FFB1FF3
:100ABE002BD3269526952695532F5F935F5FE22FB6
:100ACE00AF91EA1740F0102FE12F1150E03011F0E6
:100ADE001ED3FACFF2CFAE850A17F9F0EE85AA85AE
:100AEE00BB85E3D211D3ED85E77009F03F5F20E0BF
:100AFE002F932F5FE32FAF91AE1778F41E851F93C0
:100B0E001F5FE02FAF91AE1710F401D3F8CFEE8533
:100B1E00AE81BF81CAD2F8D2EBCFEF85E7703E2F00
:100B2E00ED85E03009F410C1EA85FB85EDD210E0C9
:100B3E000889303009F059C0AD85A83008F450C08E
:100B4E00E985E03011F0E33009F402C0E73009F432
:100B5E0002C0E83009F402C0E93009F402C0EA30FC
:100B6E0019F4E0D27BDE04C0E63011F4DBD265DE90
:100B7E001F93DBD2AF91AE1760F5A985A63031F485
:100B8E00D7D2B8D29BD2A0813ED222C0E985E9301D
:100B9E0011F450E00CC0EA3011F45FEF08C0C8D277
:100BAE00D0D25E2FE985E73011F0E83019F4CED2BD
:100BBE005E2F06C0E33011F4509502C0E03019F4F8
:100BCE00A52F36DE05C0C5D2EFEFEA93AD85EDDE7B
:100BDE00CFCFEF85E85FEF87ED85E850ED87ADC0AD
:100BEE005D8520E0E0E0ED8767C0E32FAD85AE0FB9
:100BFE00A93020F42D85E0E0ED8703C0E8E0E31B8B
:100C0E002E2F3A93A22FB4D14E2FE985E630B9F4A8
:100C1E0089D213DE1F9389D2AF91AE1778F44ED2DC
:100C2E00E081E423AE2FE32FF8D299D2E32FA42F45
:100C3E00F4D29FD25FD2A52FE6D1ECCF22C0E930FD
:100C4E0011F450E003C0EA3089F45FEF7FD2AE2F8B
:100C5E00E32FDBD25E2F1F9368D2AF91AE1728F42D
:100C6E0078D24A93A0E0A1DEF6CF0BC01F935DD2DF
:100C7E00AF91AE1730F481D2AE2FE32FC6D28AD207
:100C8E00F5CFED85E03009F45FC0AD85A83028F4CE
:100C9E00ED85E21B5E2FE0E003C0532FED85E8509B
:100CAE00ED8710E0EF85E85FEF87E8E0E31B2E2F7E
:100CBE000889EA85FB8528D2E52FF0E0E657FB4F41
:100CCE004491E985E630B9F42DD2B7DD1F932DD2CC
:100CDE00AF91AE1778F4F2D1E081E423AE2FE22F7C
:100CEE0094D23DD2E22FA42F90D243D203D2A52F7D
:100CFE008AD1ECCF22C0E93011F450E003C0EA30C3
:100D0E0089F45FEF23D2AE2FE22F87D25E2F1F938F
:100D1E000CD2AF91AE1728F41CD24A93A0E045DE58
:100D2E00F6CF0BC01F9301D2AF91AE1730F425D280
:100D3E00AE2FE22F72D22ED2F5CFE885AA85BB85D3
:100D4E00B4D1EA87FB87ECCEA4D26196089526D261
:100D5E0014F0CDD115C127D2A435E0E0BE071CF0AA
:100D6E00E3E5F0E00DC1E881F9810AC117D214F074
:100D7E00BED106C118D2D0971CF0EFE2F0E000C150
:100D8E00E881F981FDC0A3D1239710D28F01002EE7
:100D9E00012A11F4ACD152C00FD20F820DD20E82A5
:100DAE000BD20886EB85A885EA1710F4A0D146C0B1
:100DBE00F8010F5F1F4F5491A885BB27EE27A50F93
:100DCE00BE1FEB85F0E0EA17FB0710F090D136C09E
:100DDE00EE8167D14E2FEE81E77009F04F5FEF8104
:100DEE00E03081F0A985BA85EC93A885EB85EA1BE6
:100DFE00F0E0DF01EF8185D1DF01E42F82D1E00F3A
:100E0E00F11F1CC09801E52FF0E00E0F1F1FA885E3
:100E1E00AF5FA887A150EB85AE1750F4F9012F5F95
:100E2E003F4FA491B0E0E42F6CD10E0F1F1FEFCFF8
:100E3E00F901E491A985BA85EC93F8012AD22C9692
:100E4E000895E0E0E0936201A0916301BB27B9D160
:100E5E0054D1E091670151D189DFE0936301089588
:100E6E00AA932197A3D1309709F44CC0AF81AA3031
:100E7E0009F446C0EF81EA93DE01179684DFAF01D5
:100E8E00309709F441C0E0916601AE81EA0F3E2F22
:100E9E00A0916201BB2709D18F010535E0E01E0745
:100EAE0018F0032F1127CDDFE091620191D1E88573
:100EBE00EA9387D1EA93E1E0EA935A934A93A7E043
:100ECE00ABDDE0916201AE81EA0F82D1E091660165
:100EDE00EA9377D1EA93C5D080D1E0916201EA938B
:100EEE00A09163016ED1EA0FEA933A93E091670104
:100EFE00EA93B7D072D1E4E5F0E0E017F10711F410
:100F0E00A0DF02C000936201C4D128960895DFD0FD
:100F1E001A93EC81EA93AC8110D063D119F0A12F12
:100F2E009FDFFBCF188122C0D2D01A935AD119F06D
:100F3E00A12F96DFFBCF188164C0AA93A981BB278E
:100F4E0006DFE0936201A881BB2710DFE093630107
:100F5E0017C0BDD0B981A881109631F0FC81EB810C
:100F6E006A8161931197E9F7EB81FC8125960895CB
:100F7E00AA93E881F0E0E657FB4FA491E98145D1B1
:100F8E00229608958BD0E981E73011F0EA3019F4FA
:100F9E001091600109C0E93019F41091610104C08B
:100FAE00E830A1F410917001E0916101E03049F058
:100FBE00103019F0EFEF188124C0EA81E095188106
:100FCE0020C0103019F4E0E018811BC0EA811881AE
:100FDE0018C07DD0EA81E13021F4E881F981E491F5
:100FEE0010C0E23019F4DFD02CD10BC0E33039F44D
:100FFE00DAD0E0917901F0917A01099502C0D3D04F
:10100E00EC9123960895AA93EB81E03029F4E881C0
:10101E00A981BA81EC9312C0E23029F4E881A9814A
:10102E00BA811BD10BC0E33049F4E981FA8162D059
:10103E00AA81E0917B01F0917C0109952496089597
:10104E00E12FF0E0E358FE4FA08108958CDAF0E036
:10105E000895E358FE4FA0810895E258FE4FA081F7
:10106E000895E0E0EA9308957EDA0E2F102F08958A
:10107E00E02FF0E00895A12FB0E0AE17BF0708955E
:10108E00A12FBB27F5CFAE1BBF0B0895A52DB0E04A
:10109E00A358BE4FECB1EC9353940895AA931A93B0
:1010AE000895E695E695E6950895F0E0EA0FFB1FA4
:1010BE000895AE2FB8CBEF51FE4F0895AFEDB1E0CE
:1010CE00ED91FD913196FE93EE933197F4CFBA9355
:1010DE00AA930895EC81FD810895E0936401F09345
:1010EE0065010895E0937901F0937A010895E0E0A7
:1010FE00F0E00895FA93EA930895F0E0AE0FBF1F63
:10110E000895F0E092D00895EE83FF830895EC8564
:10111E00EA93EF81F8853196EF83F8873197EADF0E
:10112E00A0E071CF0A93A88908951F5FEE850895F8
:10113E00EC85EA93EF81F8853196EF83F887319746
:10114E00089566277727DF01CB0143CF5A93AA85EF
:10115E0019CF0A930395E889EA935A9308955E2F5F
:10116E00EC85EA93AF81B8858827992732DF1E2E4A
:10117E000895E095E1215E2BDBCF0A930395E88974
:10118E00EA93EE85EA93E985FA853196E987FA873F
:10119E003197D7CFEA934A93AD8507CC98DFA881D4
:1011AE00B9816CD00895A881B98108956BD0E09172
:1011BE006401F09165010895F8010F5F1F4F0490CF
:1011CE000895E0916401F09165013196E4910895DE
:1011DE00EA93E0916301EA93089589DF8BDFA9E03A
:1011EE001BCCE981FA813196E983FA833197E49138
:1011FE001E2FE0300895109639F080EA9FE0019797
:10120E00F1F7A8951197C9F70895EE230E2EEA2F40
:10121E0019F0EE0F0A94E9F70895EE230E2EEA2F39
:10122E0019F0E6950A94E9F70895FA9FF02DEB9FD1
:10123E00F00DEA9FE02DF10D0895ED91FC911197BF
:10124E000895E199FECFFF93FFB7F894AEBBBFBBF5
:10125E00E09AEDB3FFBFFF910895E19B02C0A89500
:10126E00FCCF9FB7F894AEBBBFBBE09A8DB3E81727
:10127E0019F0EDBBE29AE19A9FBF089500240A1679
:10128E000B0608955A934A933A932A931A930A9304
:10129E0008955D814C813B812A81198108810895D1
:00000001FF
