:0A00000039C5FECFFDCFFCCFFBCFCA
:10000A00FACFF9CFF8CFF7CFF6CFF5CFF4CFF3CFBA
:10001A00F2CFF1CFF0CFEFCFEECFEDCF0608000051
:10002A0000000000000006080000000000000000B8
:10003A00060800000000000000000608000000009A
:10004A00000000000608000000000000000006088A
:10005A000000000000000000060800000000000088
:10006A00000006080000000000000000060800006A
:10007A000000000000000608000000000000000068
:10008A00060800000000000000000608000000004A
:10009A00000000000608000000000000000006083A
:1000AA000000000000000000060800000000000038
:1000BA00000006080000000000000000060800001A
:1000CA000000000000000608000000000000000018
:1000DA0006080000000000000000060800000000FA
:1000EA0000000000060800000000000000000608EA
:1000FA0000000000000000000608000000000000E8
:10010A0000000608000000000000000006080000C9
:10011A0000000000000006080000000000000000C7
:10012A0006080000000000000000060800000000A9
:10013A000000000006080000000000000000060899
:10014A000000000000000000060800000000000097
:10015A000000060800000000000000000608000079
:10016A0000000000000006082020202020002000B7
:10017A000608484848000000000006085050F85099
:10018A00F850500006082078A07028F020000608D1
:10019A00C0C810204098180006086090A040A89097
:1001AA0068000608602040000000000006081020D1
:1001BA004040402010000608402010101020400047
:1001CA000608005020F8205000000608002020F8F9
:1001DA0020200000060800000000006020400608F9
:1001EA00000000F80000000006080000000000609F
:1001FA006000060800081020408000000608708889
:10020A0098A8C88870000608206020202020700066
:10021A000608708808304080F800060870880830A0
:10022A0008887000060810305090F8101000060870
:10023A00F880F008088870000608304080F0888846
:10024A0070000608F8081020404040000608708830
:10025A00887088887000060870888878081060009E
:10026A000608006060006060000006080000606028
:10027A000060204006081020408040201000060838
:10028A000000F800F8000000060880402010204016
:10029A008000060870880810200020000608708870
:1002AA000868A8A870000608708888F888888800F6
:1002BA000608F08888F08888F00006087088808030
:1002CA00808870000608E09088888890E000060818
:1002DA00F88080F08080F8000608F88080F080803E
:1002EA0080000608708880809888780006088888C8
:1002FA0088F888888800060870202020202070004E
:10030A000608381010101090600006088890A0C0E7
:10031A00A09088000608808080808080F800060807
:10032A0088D8A8A88888880006088888C8A89888CD
:10033A008800060870888888888870000608F0880F
:10034A0088F080808000060870888888A8906800F5
:10035A000608F08888F0A0908800060870888070E7
:10036A00088870000608F8202020202020000608AF
:10037A0088888888888870000608888888888850CD
:10038A0020000608888888A8A8A850000608888837
:10039A00502050888800060888888850202020002D
:1003AA000608F80810204080F8000608704040400F
:1003BA00404070000608008040201008000006082F
:1003CA0070101010101070000608205088000000ED
:1003DA000000060800000000000000F8060840209F
:1003EA0010000000000006080000700878887800F5
:1003FA0006088080B0C88888F0000608000070806F
:10040A0080887000060808086898888878000608B6
:10041A0000007088F88070000608304840E04040CC
:10042A0040000608000078888878087006088080EE
:10043A00B0C8888888000608200060202020700044
:10044A00060810003010101090600608808090A0F6
:10045A00C0A0900006086020202020207000060816
:10046A000000D0A88888880006080000B0C88888DC
:10047A008800060800007088888870000608000056
:10048A00F08888F080800608000078888878080854
:10049A0006080000B0C88080800006080000788046
:1004AA007008F00006084040E04040483000060866
:1004BA0000008888889868000608000088888850A4
:1004CA002000060800008888A8A850000608000036
:1004DA0088502050880006080000888888780870AC
:1004EA0006080000F8102040F800060810202040F6
:1004FA0020201000060820202020202020000608A6
:10050A0040202010202040000608689000000000CB
:10051A0000000608000000000000000006080000B5
:10052A0000000000000006080000000000000000B3
:10053A000608000000000000000006080000000095
:10054A000000000006080000000000000000060885
:10055A000000000000000000060800000000000083
:10056A000000060800000000000000000608000065
:10057A000000000000000608000000000000000063
:10058A000608000000000000000006080000000045
:10059A000000000006080000000000000000060835
:1005AA000000000000000000060800000000000033
:1005BA000000060800000000000000000608000015
:1005CA000000000000000608000000000000000013
:1005DA0006080000000000000000060800000000F5
:1005EA0000000000060800000000000000000608E5
:1005FA0000000000000000000608000000000000E3
:10060A0000000608000000000000000006080000C4
:10061A0000000000000006080000000000000000C2
:10062A0006080000000000000000060800000000A4
:10063A000000000006080000000000000000060894
:10064A000000000000000000060800000000000092
:10065A000000060800000000000000000608000074
:10066A000000000000000608000000000000000072
:10067A000608000000000000000006080000000054
:10068A000000000006080000000000000000060844
:10069A000000000000000000060800000000000042
:1006AA0000000608000000000000000006085000D4
:1006BA00F880F080F8000608000000000000000042
:1006CA000608000000000000000006080000000004
:1006DA0000000000060800000000000000000608F4
:1006EA0000000000000000000608000000000000F2
:1006FA0000000608000000000000000006080000D4
:10070A0000000000000006080000000000000000D1
:10071A0006080000000000000000060800000000B3
:10072A0000000000060800000000000000000608A3
:10073A0000000000000000000608000000000000A1
:10074A000000060800000000000000000608500033
:10075A007088F880700006080000000000000000A1
:10076A000608000000000000000006080000000063
:10077A000000000006080000000000000000060853
:10078A000000000000000000060800000000000051
:10079A00000006080000000000000000060870883B
:1007AA0088F8888888000608F88080F08888F00031
:1007BA000608F08888F08888F0000608F8808080AB
:1007CA008080800006083050505050F88800060893
:1007DA00F88080F08080F8000608A8A8A870A8A869
:1007EA00A80006087088081008887000060888881B
:1007FA0098A8C88888000608A88898A8C888880081
:10080A000608888890E09088880006083848888812
:10081A0088888800060888D8D8A8A8888800060882
:10082A00888888F888888800060870888888888870
:10083A0070000608F8888888888888000608F08882
:10084A008888F08080000608708880808088700020
:10085A000608F8202020202020000608888888889A
:10086A007808F000060870A8A8A8A8702000060852
:10087A008888502050888800060888888888888850
:10088A00F808060888888888F80808000608A8A8CA
:10089A00A8A8A8A8F8000608A8A8A8A8A8A8F808B8
:1008AA000608C0404070484870000608888888C812
:1008BA00A8A8C800060840404070484870000608CA
:1008CA007088083808887000060890A8A8E8A8A8C0
:1008DA00900006087888888878488800060800000A
:1008EA007008788878000608186080F08888700098
:1008FA0006080000F088F088F00006080000F8807A
:10090A008080800006080000305050F888000608F1
:10091A0000007088F880700006080000A8A870A877
:10092A00A8000608000070881088700006080000F9
:10093A008898A8C88800060870008898A8C88800FF
:10094A00060800008890E0908800060800003848F1
:10095A00888888000608000088D8A88888000608C1
:10096A0000008888F888880006080000708888884F
:10097A00700006080000F8888888880006080000C9
:10098A00F088F08080000608000070888088700077
:10099A0006080000F82020202000060800008888A9
:1009AA007808F0000608000070A8A8702000060861
:1009BA00000088502050880006080000888888882F
:1009CA00F808060800008888F808080006080000E9
:1009DA00A8A8A8A8F80006080000A8A8A8A8F808C7
:1009EA0006080000C04070487000060800008888A9
:1009FA00C8A8C800060800004040704870000608F1
:100A0A0000007088388870000608000090A8E8A8DE
:100A1A00900006080000788878488800F4061027B5
:100A2A00E80364000A000100001000011000010040
:100A3A000000A8EBE5EAF2F0EEEDE8EAE020E220B9
:100A4A00EEE1FAE5EAF2E8E2E50001002D4E414E58
:100A5A0000494E460000010005003A0A18006001EC
:100A6A003C0A01002E02540A0000F894EE27ECBB5F
:100A7A00F1E0FBBFEBBFE5BF8DE0A2E0BB27ED9342
:100A8A008A95E9F780E094E0A0E6ED930197E9F70B
:100A9A00E0E6FAE085919591009761F0A591B5910C
:100AAA0005901590BF01F00105900D920197E1F7AD
:100ABA00FB01F0CFEFE5EDBFE4E0EEBFC0E6D1E029
:100ACA0000C0ECE2E7BBE0E0E8BBE4BBE5BBE1BBAE
:100ADA00E2BBE3BFE2BFEFBDEEBDEDBDECBDE7BDDE
:100AEA00E6BDEBBDEABDE9BDE8BDE2BDE5BDE4BDDD
:100AFA00E3BDE9BFE5BFEAB9E0E8E8B9E0E0E0BF95
:100B0A00E6B9E1E5EDB9E0E0EEB9E6BF5BD0A1E018
:100B1A006AD0A4EFB1E061D2A0E065D02297E0E606
:100B2A00F1E01CD21ED2ACE8B0E0D3D1E883F9835D
:100B3A0018D2EA81FB8112D2A1E009D012D2EA814D
:100B4A00FB810CD2A0E003D02296E8CFFFCFAA9374
:100B5A0073D2EC81F0E0309719F0E0E0F0E002C0E7
:100B6A0003D231979F01A0E043D001D2FDD1B096C4
:100B7A000E171F0720F5EC81E03071F047D0F4D151
:100B8A000E171F0728F4F9012F5F3F4FF3D101C059
:100B9A00E0E0E09397010DC04ED0E6D10E171F0793
:100BAA0028F4F90121503040E5D101C0E0E0E0939A
:100BBA00780155D0A4E6B0E010D2E2D1D7CF43D223
:100BCA00299608958FD0DFD1A1E0F5D0DCD1A7E036
:100BDA00E8D0D9D1A0E0D6D0D6D1AFE0D8D0A0E025
:100BEA0007D03DD00895AA93CED1A981EED0B4C141
:100BFA00AA9324D2BCD10032E0E01E0730F4F801F7
:100C0A00C5D1AA81A083BCD1F6CF14C117D201E005
:100C1A0010E00032E0E01E0768F4F8013197B6D11F
:100C2A000F01A8E7B1E0A00FB11FEC91D001EC933E
:100C3A00A7D1EFCF11C002D20FE110E0002E012A96
:100C4A0059F0D801A858BE4FF80131979FD1E081D9
:100C5A00EC9301501040F2CF099119910895289709
:100C6A00EBD110E01830D8F500E00430A0F5219758
:100C7A00E0E0E88330E03830C8F4E02FF0E0C8D193
:100C8A00DF0187D189D182D11080E12FA1E0B0E0C4
:100C9A00B6D1A12D84D111F0E1E001C0E0E02E2F00
:100CAA00E7E0E31BA22F80D13F5FE5CFE02FF0E022
:100CBA00DE0115967ED10F01A881BB27E12FF0E056
:100CCA003196FE2FE0E0EA2BFB2BD001ED93FC934B
:100CDA0021960F5FCACF70D139D01F5FC3CFB3D16E
:100CEA002C960895B89AC09AC09A0895AA932897FC
:100CFA00A3D1AC85B0E0E0E0FD85EA2BFB2B8F01A8
:100D0A0030E03430F0F4AE85AF3F31F442D154D103
:100D1A0050D10083118313C0EE85E31731F439D122
:100D2A004BD147D1008311830AC033D145D1EE0F8D
:100D3A00FF1FAE0FBF1FE0E0F0E0ED93FC933F5FB3
:100D4A00E0CF3AD103D07FD12F96089538D11A93A4
:100D5A00C09810E0143050F4A981BA81ED91FD9148
:100D6A00A983BA83DF0105D01F5FF4CFC09A188127
:100D7A0062C025D1E981F070AE2FE8D0E881AE2FAC
:100D8A00E5D049C0AA931ED1E9E01FD144C0AA9375
:100D9A00A881A03110F0EFE0E88314D1EAE015D180
:100DAA003AC0AA93A881A83010F0E7E0E8830AD1F4
:100DBA00EBE00BD130C0AA93E881E03011F0E1E01A
:100DCA00E88300D1ECE001D126C0AA93E881E030A3
:100DDA0011F0E1E0E883F6D0EFE0F7D01CC0AA9367
:100DEA001A9310E01A30A0F4E12FF0E0EC5DFD4F09
:100DFA00BF01E981AAE0EA9FF001EA5DFF4FDF0146
:100E0A00E12FF0E0C9D0E491DB01EC931F5FEACF58
:100E1A00E4E2F2E0188122960895AA930FD1D8D07D
:100E2A00FED0FF93EF93AA81EF91FF9109958F016D
:100E3A00D801EC910AD123960895C1D0FBD0C8D02D
:100E4A00EED0FF93EF93AA85EF91FF9109958F0159
:100E5A00D80196D0EC913E2FD80192D0EC912E2F4A
:100E6A00EE81FF81A32FB0E0EA17FB0710F4E0E060
:100E7A002DC050E0531748F52197E0E0E88340E0A1
:100E8A004217B8F4D801EE27A40FBE1F6C91E52FC4
:100E9A00F0E0A7E0B0E0C7D0EA1BFB0BA1E0B0E0AE
:100EAA00AED0A62F7CD019F0E42FA1E07DD04F5F01
:100EBA00E7CFE881A985BA85EC93E985FA85319669
:100ECA00E987FA8721965F5FD5CFE32FBAD02B96B1
:100EDA00089575D0B1D04BD028853985D901EC91C8
:100EEA00E03081F0AC9199DFF0E00E0F1F1F2F5F09
:100EFA003F4FEC81FD81E017F10718F4E0E0F0E0E4
:100F0A0022C0ECCF34D028853985D901EC91E03064
:100F1A00C9F02197EA93E885F98520D0A885B98593
:100F2A00A01BB10B8ADFE883F0E00E0F1F1FE881D8
:100F3A00F0E0AF81B88530D0EF83F8872F5F3F4F5D
:100F4A002196E3CFF8017FD02A960895AA93E881E3
:100F5A00EFB9779BFECFEFB121960895FA93EA9302
:100F6A000895E8E9F1E0FACFED81FE81089500E005
:100F7A0010E00895AF81B885AE0FBF1FEC910895B8
:100F8A000F5F1F4F0895EFEFEA930895E858FE4F59
:100F9A000895E32FF0E00895EA0FFB1F0895B0E0EB
:100FAA00EA23FB233097089522D0A881EA2BE8830D
:100FBA000895EE0FFF1FF0CFDE0114960895BA933D
:100FCA00AA930895E981EA930895EA93AA818ECEB5
:100FDA00E52DA6E2BAE0F0E0ECCF109639F080ED0C
:100FEA0097E00197F1F7A8951197C9F70895EE23AD
:100FFA000E2EEA2F19F0EE0F0A94E9F70895EE2360
:10100A000E2EFD0121F0EE0FFF1F0A94E1F708955D
:10101A00EE0FFF1FEE0FFF1FEE0FFF1F0895059043
:10102A00F491E02D08951B2EBF2FF12D1A2EAE2F0D
:10103A00E12D08955A934A933A932A931A930A935D
:10104A0008955D814C813B812A8119810881089527
:00000001FF
