:0800000066C0FECFFDCFFCCF6E
:10000800FBCFFACFF9CFF8CF8FC089C0F5CFF4CFA7
:10001800F3CFF2CFF1CFF0CFEFCFEECFEDCFAC6192
:10002800B43D312F3200AC61B43D312F340048610A
:10003800BE7061B3BB65BDB865203E3E3E004861F9
:10004800BE7061B3BB65BDB865203C3C3C008043D5
:10005800BA6F702E3D00030209101830292223269A
:100068002D341C140D0603091829232D1C0DCBFA59
:100078001EFB68FBA9FBE3FB18FC48FC73FC9AFC1D
:10008800BFFC000044535441434B454E4400485381
:100098005441434B454E440080C001002D4E414E13
:1000A80000494E460000010006008A000900600071
:1000B8008C0009006D01960002006501A000010096
:1000C8006901A2000000F894EE27ECBBF1E0FBBF49
:1000D800EBBFE5BF8DE0A2E0BB27ED938A95E9F77A
:1000E80080E094E0A0E6ED930197E9F7EEEAF0E00E
:1000F80085919591009761F0A591B591059015901E
:10010800BF01F00105900D920197E1F7FB01F0CFD7
:10011800EFE5EDBFE4E0EEBFC0E6D1E05CC0C1D1E1
:10012800E3E8E2BFC3D00BC0BCD1C9D1D1D1E491BF
:10013800ECBDB29B02C0A1E001C0AFEF35D0E991A0
:10014800EFBFF991E991B991A99199918991799123
:100158006991F990199009901895AA9308D1E981A5
:10016800E03019F0A6E2B0E002C0AEE2B0E02DD176
:10017800E881F0E03196FA93EA93A0E6B1E063D122
:10018800A6E5B0E022D1A0E6B1E010D1E0E0EA9324
:10019800A1E0E0D0EA81E03019F0A6E3B0E002C0C7
:1001A800A6E4B0E012D122C1AA93B39B09C095D1AD
:1001B800E85FA881AE0FE7E093D1E259FF4F08C08E
:1001C8008CD1E05FA881AE0FEFE08AD1E25AFF4FF1
:1001D800049002BA36C165D0E0E1E7BBEFE0E8BBC6
:1001E800EFE3E4BBE0E0E5BBEFEFE1BBE0E0E2BB5F
:1001F800E3E0E3BFE3E8E2BFE0E0EFBDE2E0EEBD4D
:100208005ED166D1E491ECBDE0E0E7BDE6BDEBBDB3
:10021800EABDE9BDE8BDE2BDE5BDE4BDE3BDE5E09D
:10022800E9BFE0E0E5BFEAB9E0E8E8B9E0E0E0BF4F
:10023800E6B9EDB9E6BFA0E1DBD058D15BD178943F
:10024800219753D0E883E03091F0A881A13031F4B0
:10025800E9E0E61511F4662401C06394A881AF3F74
:1002680031F4662019F4E9E06E2E01C06A94A0E02A
:10027800B299A1E0E42D45D141F4A0E0B399A1E001
:10028800E52D3FD111F4761449F030D14E2EE0E03F
:10029800B399E1E05E2E762C29D12CD12196D0CFCE
:1002A800FFCFB898B998C09AC19A08954ED100E086
:1002B800B0990160B199026010916401E12FE37077
:1002C800E01781F0E12FEE0FEE0FE02BE0936401D1
:1002D800113E19F4EFEFE0936301123D19F4E1E0E8
:1002E800E09363010991199108951A93109163019C
:1002F800E0E0E0936301E12F19910895AA93E88162
:10030800E07111F0AA9A01C0AA98E881E07211F090
:10031800AB9A01C0AB98E881E07411F0AC9A01C0C7
:10032800AC98E881E07811F0AD9A01C0AD98F0D0B2
:10033800A99AEED0A998ECD084C0AA93A881DEDF50
:10034800E881E295E883A881D9DF88EC90E00197FD
:10035800F1F777C0AA93E881F0E0EB59FE4FE0810E
:10036800A981AE0FEADF9980888022960895A2E0DD
:10037800D3D0ACE0E2DFA1E0CFD0E0E08E2E9E2E1D
:100388000895AA93A881AA3011F09B1448F0E0E0E0
:10039800EA938394A82DDEDFA881AA3009F451C01E
:1003A8009394A89AA881C9DFA8984BC0BA93AA9336
:1003B8001A93A981BA81ED91A983BA831E2FE030DF
:1003C80019F0A12FDEDFF5CF10C0BA93AA931A93C4
:1003D800E981FA813196E983FA833197E4911E2FF6
:1003E800E03019F0A12FCDDFF3CF188123960895BF
:1003F800AA93A29AA39AA49AA59AA19AA09ABC9AF7
:10040800A998A898C498B880E881E058E093670153
:10041800E881E054E0936801A4E1B0E088D080D09E
:100428007FD07ED0A0E26ADF80E991E00197F1F702
:10043800A8E283DFA4E081DFA5E87FDFA6E07DDF17
:1004480096DF21960895BA93AA93A991B991E99153
:10045800F99130962AF4E095F09531966DE26D9316
:10046800E89480E197E20DD088EE93E00AD084E624
:10047800992707D08AE005D06E2F10D066276C9395
:1004880008956627E817F90720F06395E81BF90B2C
:10049800C9F7662311F416F008956894605D6D93AA
:1004A80008950A921A92FA926A937A938A939A937F
:1004B800AA93BA93EA93FA93EFB7EA930895E62DCD
:1004C800A6E7B0E0F0E0EE0FFF1FEA0FFB1F08956C
:1004D80038D0EF2FF0E0EDBDF2CFE0916201089542
:1004E800EA23E0936201F9DFF0E00895E0E0B299D1
:1004F800E1E00895EA93E0E0B399E1E0EA93A62DFC
:100508002CCEB0E0A7FDBFEFF0E0EA17FB07089597
:100518008BE18A95F1F7089510DFA3E0B0E007C0FA
:10052800A0E3ECDE80E991E00197F1F708951096D9
:1005380039F080EA9FE00197F1F7A8951197C9F77C
:1005480008950590F491E02D08951A930A9308955B
:00000001FF
