:0A0000002CC0FECFFDCFFCCFFBCFDC
:10000A00FACFF9CFF8CFF7CF4FC0F5CFF4CFF3CF70
:10001A00F2CFF1CFF0CFEFCFEECFEDCF7F00447527
:10002A007479206369636C65203D0025000080C0F7
:10003A0001002D4E414E00494E46000001000800C5
:10004A002600020060013800010064013A00000045
:10005A00F894EE27ECBBF1E0FBBFEBBFE5BF8DE008
:10006A00A2E0BB27ED938A95E9F780E094E0A0E649
:10007A00ED930197E9F7E6E4F0E085919591009711
:10008A0061F0A591B59105901590BF01F001059019
:10009A000D920197E1F7FB01F0CFEFE5EDBFE4E048
:1000AA00EEBFC0E6D1E078C00A921A92FA926A9339
:1000BA007A938A939A93AA93BA93EA93FA93EFB7A5
:1000CA00EA93EDEAE2BF0ED0E991EFBFF991E99127
:1000DA00B991A9919991899179916991F990199018
:1000EA0009901895E6B3E3705E2E4514E1F1E42D0C
:1000FA00F0E0E230A0E0FA0741F4E3E0E51509F4A4
:10010A006394552009F4939423C0309749F4E2E0AC
:10011A00E51509F46394E1E0E51509F4939418C030
:10012A00E130A0E0FA0741F4552009F46394E3E0D2
:10013A00E51509F493940CC0E330A0E0FA0741F402
:10014A00E1E0E51509F46394E2E0E51509F4939416
:10015A00452CE4E06E1610F083946624E4E09E16C3
:10016A0010F08A9499240895AA9385D0A8E2B0E061
:10017A00B0D0A881E4E6EA9FF001DF01EFEFF0E0FA
:10018A0044D1FA93EA93DE011296E1D0DE0192D0CD
:10019A00A5E3B0E09ED0D9C0E8E1E7BBE3E0E8BB65
:1001AA00EFE3E4BBE0E0E5BBE1BBE2BBE3E0E3BFD6
:1001BA00EDEAE2BFE0E0EFBDEEBDEDBDECBDE7BDAF
:1001CA00E6BDEBBDEABDE9BDE8BDE2BDECE6E5BDD5
:1001DA00E3E8E4BDEFE7E3BDE1E0E9BFE0E0E5BF66
:1001EA00EAB9E0E8E8B9E0E0E0BFE6B9EDB9E6BFB0
:1001FA00A0E182D07894781421F0A82DB5DF782C6C
:10020A0083BCF9CFFFCFAA93E881E07111F0AA9AD3
:10021A0001C0AA98E881E07211F0AB9A01C0AB98CC
:10022A00E881E07411F0AC9A01C0AC98E881E078FA
:10023A0011F0AD9A01C0AD98B8D0A99AB6D0A998D4
:10024A00B4D083C0AA93A881DEDFE881E295E8836F
:10025A00A881D9DF85E88A95F1F777C0AA93E88162
:10026A00F0E0E05AFE4FE081A981AE0FEBDFB980E2
:10027A00A88022960895A2E09CD0ACE0E3DFA1E03A
:10028A0098D0E0E0AE2EBE2E0895AA93A881AA3097
:10029A0011F0BD1448F0E0E0EA93A394AA2DDEDF42
:1002AA00A881AA3009F451C0B394A89AA881CADFD8
:1002BA00A8984BC0BA93AA931A93A981BA81ED91CF
:1002CA00A983BA831E2FE03019F0A12FDEDFF5CF04
:1002DA0010C0BA93AA931A93E981FA813196E983F5
:1002EA00FA833197E4911E2FE03019F0A12FCDDF68
:1002FA00F3CF188123960895AA93A29AA39AA49A4F
:10030A00A59AA19AA09ABC9AA998A898C498D880A4
:10031A00E881E058E0936201E881E054E0936301E8
:10032A00A4E1B0E051D049D048D047D0A0E26BDF79
:10033A0088EC90E00197F1F7A8E284DFA4E082DF7D
:10034A00A5E880DFA6E07EDF96DF21960895BA93BE
:10035A00AA93A991B991E991F99130962AF4E09575
:10036A00F09531966DE26D93E89480E197E20DD0B5
:10037A0088EE93E00AD084E6992707D08AE005D070
:10038A006E2F10D066276C9308956627E817F90731
:10039A0020F06395E81BF90BC9F7662311F416F0F0
:1003AA0008956894605D6D9308958DE08A95F1F7DC
:1003BA00089548DFA3E0B0E007C0A0E324DF88EC9B
:1003CA0090E00197F1F70895109639F080ED97E0E3
:1003DA000197F1F7A8951197C9F70895F195E19555
:1003EA00F04008950024112490E1AA0FBB1F001CBD
:1003FA00111C0E1A1F0A18F40E0E1F1E01C0A1604E
:10040A009A9599F7FD01D001089504D0EBDF0EF417
:10041A00E5DF0895E894F7FF02C0E0DF6894B7FFCC
:10042A0006C0A095B095119600F8039400FA0895B5
:00000001FF
