:0200000022C01C
:10000200FECF4FC0FCCFFBCFFACFF9CFF8CFF7CF5F
:10001200F6CFF5CFF4CFF3CFF2CFF1CFF0CFEFCFD2
:10002200EECFEDCF0000000000000000000080C015
:1000320001000200260008000400280002006001FE
:1000420030000000F894EE27ECBBF1E0FBBFEBBF01
:10005200E5BFF8E1F1BDE1BD8DE0A2E0BB27ED9384
:100062008A95E9F780E094E0A0E6ED930197E9F73D
:10007200E2E3F0E085919591009761F0A591B59149
:1000820005901590BF01F00105900D920197E1F7DF
:10009200FB01F0CFEFE5EDBFE4E0EEBFC0E6D1E05B
:1000A20041C0EA93EFB7689420F8EFBFE991189541
:1000B200E5E0F0E041D1E4E0F0E03ED1A7E0B0E0DD
:1000C2006FD0EBE0F0E038D1E6E0F0E035D1E9E0E6
:1000D200F0E032D1A8E0B0E080D031D1A0E0BED0D3
:1000E200A52D30D1A52D33D1A42D2CD1A42D2FD1C6
:1000F200A72D28D1A72D32D122D1A1E0AFD0A62D94
:1001020021D1A62D2BD1AFE2C0D0A92D1BD1A92D73
:1001120025D1AFE2BAD0A82D15D1A82D1FD1E894D0
:1001220020F80895EFE0E5BBE0E0E4BBE8E0E2BBE5
:10013200E0E0E1BB41D103D1E1E0EA93A0E01BD0D2
:10014200EBB7E068EBBFE0E0E5BFE0E8EABFA0E1C3
:10015200B1D0E5E1EA93F3D0A0E032D0E1E0EA9356
:10016200E7E0EA93EAE0EA93AEE049D0789420FC33
:100172009FDFFDCFFFCFAA93EA81E370EA83E98193
:10018200E03019F0EA81E061EA83E881E03019F0B9
:10019200EA81E068EA83E7D0A7E047D1AA8119C0E3
:1001A200BA93AA93E0D0A0E0E1D0E7D0A881B981C8
:1001B200E6D0E9D0AC81BD81EC9312D126960895A8
:1001C200AA93D1D0A0E0E5D0A981E8D02ED1AA810E
:1001D200E5D02BD105D123960895BA93AA93C3D023
:1001E200A3E0C4D0AE81BF81CAD0AC81BD81C7D0EB
:1001F200CAD0A881B981EC93F3D028960895AA9326
:10020200B2D0A3E012D1AB8110D1AA81C7D00DD157
:10021200A981C4D0BED0E4D024960895AA93E2B3B3
:10022200EF70AE2FE881E07FEA2BE2BB85E08A9592
:10023200F1F7929A8DE08A95F1F792988DE08A957E
:10024200F1F761C0AA93A881E9DFE881E295E8832A
:10025200A881E4DF85E88A95F1F755C0AA93E88181
:10026200F0E0E05AFE4FE081A981AE0FEBDFD980CA
:10027200C88022960895A2E094D0ACE0E3DFA1E02A
:1002820090D0E0E0CE2EDE2E0895AA93A881AA3067
:1002920021F0E0916401DE1638F051D0C394AC2D08
:1002A200DDDFA881AA3079F1D394909AA881CADFC0
:1002B200909829C0AA93E1B3E06FE1BB8A9A889A29
:1002C200899A929890989198E881E0936401E05815
:1002D200E0936201E881E054E0936301A4E1B0E0BD
:1002E200BCD063D062D061D0A0E298DF88EC90E00D
:1002F2000197F1F7A8E2A6DFA4E0A4DFA5E8A2DF58
:10030200A6E0A0DFB8DF21960895AA93E881E295DE
:10031200EF70AE2FAA0FAA0FEA0FEE0FA991AF70DE
:10032200EA0F0895AA93A991EE27AA5012F0E05F6E
:10033200FCCFA65FEA0F0895FA93EA930895E0E0EE
:10034200EA930895EAE093D0E05DAE2F9ECFEAE013
:100352009CD0E05DAE2F99DFAAE397CFEAE095D07B
:10036200E05DAE2F92CF2DD0A0ED5FC05ED038D031
:1003720028D0A1ED5AD0A1E03DC0AE2FC6CFEC935C
:10038200A1E038D0FACFAA81BB81EC93A0E032D0B1
:10039200F4CF4BD0A881C6DFAE2F47C0C3DFAE2F4C
:1003A200089550DFA3E0B0E058C0A0E337DF88EC47
:1003B20090E00197F1F70895C198C098B99AB8985A
:1003C20015C0B898B998EE270000B09B0895B19B6C
:1003D200089504D0B89A02D0B99AE1E06DE007C05E
:1003E200B89AB99A03D0B998F9DFB8986BE16A95CF
:1003F200F1F7089578E0B998F1DFB19BFECFEEDF17
:100402008894B0990894B99AF1DFEE1F7A9599F71A
:100412007A2F772311F4B89801C0B89ADFDFB99820
:10042200E5DFB99ADBDFB898D9CF78E0AA0F10F4EC
:10043200B89801C0B89ADADFB998D0DFB19BFECF85
:10044200CDDFB99A7A9591F7B898C8DFB998CEDF1F
:10045200E1E0B099EE27B99AC1CF109639F080ED5C
:1004620097E00197F1F7A8951197C9F7089500242D
:1004720098E0AA0F001C0E1A10F40E0E01C0A16023
:100482009A95B9F7EA2FA02D0895F1DFEA2F089582
:00000001FF
