:0C00000012C0FECFFDCFFCCFFBCFFACF2B
:10000C00F9CFF8CFF7CFF6CFF5CFF4CFF3CFF2CFC0
:10001C00F1CFF0CFEFCFEECFEDCFF894EE27ECBBD6
:10002C00F1E0FBBFEBBFE5BF8DE0A2E0BB27ED939A
:10003C008A95E9F780E094E0A0E6ED930197E9F763
:10004C00EFE5EDBFE4E0EEBFC0E6D1E09EC0A09AC4
:10005C00A19AA29AA898A99AAA980895BA93AA9331
:10006C00EDD010E020E030E0A998C6D0103180F43B
:10007C002C813D81E12FD901D8D0F07811F0A89ACC
:10008C0001C0A898B9D0AA9AB7D0AA981F5FEECF92
:10009C00B3D0A99AD8D026960895A1E0BFE0DEDFB0
:1000AC00A8EEB3E0B0D0A0E0BFE0D8DF0895AA93EB
:1000BC00C7D010E000E0AA81A03011F4E1E0EA839F
:1000CC00AA81A83010F0E7E0EA83C1DFA0E0BFE02E
:1000DC00C5DFAC81A13009F4E0DFAB81A13051F474
:1000EC00EA81E11730F0E12FA1E097D00E2B1F5FD2
:1000FC00F7CF0FC0EB81E03059F4EA81E11738F00B
:10010C00E12FA1E08AD0E0950E231F5FF6CF01C04E
:10011C000B81E02FF0E0F960DF01A0DFEA81F0E075
:10012C00FB60DF019BDFA1E0BCE020C0AA9388D07C
:10013C0000E010E0AC81A03011F4E1E0EC83AC8184
:10014C00A83010F0E8E0EC83AA81A03819F4EB8118
:10015C00E06802C0EB81EF77EB830C811127B02FA5
:10016C00A0E0F0E0EA2BFB2B8F01D80177DF6DD0FC
:10017C00259608951A9311E0193028F41A93EFE09C
:10018C003FD01F5FF9CF19910895E0E0E7BBE8BBC2
:10019C00E7E0E4BBE0E0E5BBE1BBE2BBE3BFE2BF11
:1001AC00EFBDEEBDEDBDECBDE7BDE6BDEBBDEABD03
:1001BC00E9BDE8BDE2BDE5BDE4BDE3BDE9BFE5BF1A
:1001CC00EAB9E0E8E8B9E0E0E0BFE6B9EDB9E6BFCE
:1001DC00E1E0EA93EA93A8E06ADFCCDFE2E0EA939D
:1001EC000FD0E4E0EA93EA93A0E8A0DFE6E0EA931C
:1001FC00E1E006D0FBCFFFCF8BE18A95F1F70895B4
:10020C00EA93AFE793CF109639F080EA9FE001971D
:10021C00F1F7A8951197C9F70895EE230E2EEA2F42
:10022C0019F0EE0F0A94E9F70895EE230E2EFD0156
:10023C0021F0EE0FFF1F0A94E1F708953A932A93E9
:10024C001A930A9308953B812A8119810881089594
:00000001FF
