:020000001CC022
:10000200FAC0FDCFFCCFFBCFFACFF9CFF8CFF7CFB5
:10001200D7C0F5CFF4CFF3CFF2CFF1CFF0CFBEC040
:10002200EECFEDCF000001006400030004002600C3
:10003200010060012A000000F894EE27ECBBF1E019
:10004200FBBFEBBFE5BF8DE0A2E0BB27ED938A9536
:10005200E9F780E094E0A0E6ED930197E9F7ECE29E
:10006200F0E085919591009761F0A591B591059089
:100072001590BF01F00105900D920197E1F7FB0188
:10008200F0CFEFE5EDBFE4E0EEBFC0E6D1E0D9C0CE
:10009200AA93E0916101F0E03097A1F4459B02C080
:1000A2004FD179F0662029F0EFB5E068EFBD4BD172
:1000B20005C04ED1EFB5E062EFBDE0E0E7B9E1E0A7
:1000C2004BD16AC0E130A0E0FA0781F4459902C041
:1000D20037D159F0662019F0C098C49A02C0C0986E
:1000E200C59AE1E0E7B9E2E037D156C0E230A0E0DC
:1000F200FA07A1F4459B02C023D179F0662031F0C2
:1001020027D1E5B5E062E5BDE0E004C0E5B5E06217
:10011200E5BD19D1E7B9E3E01FD13EC0E330A0E06D
:10012200FA0789F4459902C00BD161F0662021F0EB
:10013200C59AC498E2E003C0C598C49AE0E0E7B962
:10014200E4E00AD129C0E430A0E0FA0789F4459B33
:1001520002C0F6D061F0662019F003D1E06202C05D
:1001620000D1E068EFBDE1E0E7B9E5E0F5D014C009
:10017200E530A0E0FA0781F4459902C0E1D061F0D0
:10018200662021F0C598C09AE0E003C0C09AC498E6
:10019200E2E0E7B9E0E0E0D021960895E7D0E0910F
:1001A2006201EF5FE0936201EFD0A93C18F0E8EC46
:1001B200E0936201E9D0A83C11F4A0E069DF0DC030
:1001C200D5D0E0E0E0936201EAE0F0E0FBBDEABDF9
:1001D200F9BDE8BDE3BDA1E05BDFE991EFBFF991B5
:1001E200E991B991A9919991899179916991F9903E
:1001F2001990099018958A939A93AA93EA93EFB764
:10020200EA93C5D0829914C0C2D0819909C0A09145
:100212006001AA3021F0C0D0E550E093600108C02F
:10022200A0916001AF3F21F0B7D0EB5FE093600196
:10023200E0E4EABFE991EFBFE991A991999189912F
:100242001895EFEFE7BBE0E0E8BBE4BBE5BBE0E815
:10025200E1BBEFE0E2BBE5E0E3BFE0E0E2BFE1EA01
:10026200EFBDE9E0EEBDE0E0EDBDECBDE7BDE6BD12
:10027200EBBDEABDE9BDE8BDE2BDE9E6E5BDE0E012
:10028200E4BDE3BDE1E08BD0E2E0E5BFE0E4EABF3C
:10029200E0E0EAB9E6B9E8E0E8B9E0BFE0E0EDB9EC
:1002A200E6BF56D081D07894809907C0A4E1B0E02F
:1002B20085D0E1E04E26809BFECF442071F1439A27
:1002C200E9B7E1606CD060D0A83C11F4552009F088
:1002D20016C0EAE07E2E60D07E1670F4AAE0B0E08E
:1002E2006DD0E72DF0E0FBBDEABDE72DF0E0F9BDF2
:1002F200E8BD73BC7394EFCFE1E05E2E979A44D0D1
:10030200A83C51F449D0F0E0FBBDEABD45D0F0E095
:10031200F9BDE8BD41D0E3BD11C0839B03C0E1E05C
:100322006E2E01C066245524979812D03DD0439872
:10033200E9B7EE7FE9BFEBB7EF7BEBBFB5CFFFCFFE
:10034200E881E0300895EFB5EF7DEFBDE2E008957A
:10035200EFB5EF77EFBD0895E0936101E0E0E2BF12
:100362000895E5B5EF7DE5BDEFB508950A921A92BD
:10037200FA926A937A938A939A93AA93BA93EA9394
:10038200FA93EFB7EA930895A0916201089588EC79
:1003920090E00197F1F70895E09160010895E9BFB7
:1003A200EBB7E064EBBF0895C598E5B5EF7DE5BD19
:1003B200C098EFB5EF7DEFBDC4980895109639F05F
:1003C20080ED97E00197F1F7A8951197C9F7089585
:00000001FF
