:0C0000001CC0CDC0FDCFFCCFFBCFFACF61
:10000C00F9CFF8CFF7CFEBC0F5CFF4CFF3CFF2CFDA
:10001C00F1CFF0CFF2C0EECFEDCF000001006400C5
:10002C00030004002600010060012A000000F8947F
:10003C00EE27ECBBF1E0FBBFEBBFE5BF8DE0A2E030
:10004C00BB27ED938A95E9F780E094E0A0E6ED9369
:10005C000197E9F7ECE2F0E085919591009761F05A
:10006C00A591B59105901590BF01F00105900D92E9
:10007C000197E1F7FB01F0CFEFE5EDBFE4E0EEBF58
:10008C00C0E6D1E0D9C0AA93E0916101F0E03097CD
:10009C00A1F4459B02C056D179F0662029F0EFB54A
:1000AC00E068EFBD52D105C055D1EFB5E062EFBDB0
:1000BC00E0E0E7B9E1E052D16AC0E130A0E0FA0734
:1000CC0081F4459902C03ED159F0662019F0C098D0
:1000DC00C49A02C0C098C59AE1E0E7B9E2E03ED10B
:1000EC0056C0E230A0E0FA07A1F4459B02C02AD129
:1000FC0079F0662031F02ED1E5B5E062E5BDE0E0A7
:10010C0004C0E5B5E062E5BD20D1E7B9E3E026D156
:10011C003EC0E330A0E0FA0789F4459902C012D141
:10012C0061F0662021F0C59AC498E2E003C0C5983E
:10013C00C49AE0E0E7B9E4E011D129C0E430A0E0D2
:10014C00FA0789F4459B02C0FDD061F0662019F0D6
:10015C000AD1E06202C007D1E068EFBDE1E0E7B987
:10016C00E5E0FCD014C0E530A0E0FA0781F4459935
:10017C0002C0E8D061F0662021F0C598C09AE0E09A
:10018C0003C0C09AC498E2E0E7B9E0E0E7D021965A
:10019C0008958A939A93AA93EA93EFB7EA93E8D0D7
:1001AC00829914C0E5D0819909C0A0916001AA3050
:1001BC0021F0E3D0E550E093600108C0A09160010C
:1001CC00AF3F21F0DAD0EB5FE0936001E0E4EABFEF
:1001DC00E991EFBFE991A991999189911895D0D0A6
:1001EC00E0E0E0936201EAE0F0E0FBBDEABDF9BDBE
:1001FC00E8BDE3BDA1E047DF11C0C2D0E0916201D0
:10020C00EF5FE0936201CAD0A93C18F0E8ECE093F0
:10021C006201C4D0A83C11F4A0E035DFE991EFBF36
:10022C00F991E991B991A9919991899179916991F2
:10023C00F990199009901895EFEFE7BBE0E0E8BB57
:10024C00E4BBE5BBE0E8E1BBEFE0E2BBE5E0E3BF2C
:10025C00E0E0E2BFE1E0EFBDE9E0EEBDE0E0EDBDE6
:10026C00ECBDE7BDE6BDEBBDEABDE9BDE8BDE2BD59
:10027C00E9E6E5BDE0E0E4BDEAE0E3BDE1E091D014
:10028C00E2E0E5BFE0E4EABFE0E0EAB9E8E0E8B9C3
:10029C00E0BFE0E0E6B9EDB9E6BF7894809907C01D
:1002AC00A4E1B0E083D0E1E04E26809BFECF442059
:1002BC0071F1439AE9B7E16074D070D0A83C11F4A5
:1002CC00552009F016C0EAE07E2E57D07E1670F449
:1002DC00AAE0B0E06BD0E72DF0E0FBBDEABDE72D66
:1002EC00F0E0F9BDE8BD73BC7394EFCFE1E05E2E96
:1002FC00979A54D0A83C51F440D0F0E0FBBDEABD35
:10030C003CD0F0E0F9BDE8BD38D0E3BD19C0839B0B
:10031C0003C0E1E06E2E01C06624552497981AD0D4
:10032C00C598E5B5EF7DE5BDC098EFB5EF7DEFBDA8
:10033C00C4984398E9B7EE7FE9BFEBB7EF7BEBBF0F
:10034C00ADCFFFCFE881E0300895EFB5EF7DEFBD85
:10035C00E2E00895EFB5EF77EFBD0895E09361010A
:10036C00E0E0E2BF0895E5B5EF7DE5BDEFB508959A
:10037C0080E991E00197F1F70895E091600108950B
:10038C000A921A92FA926A937A938A939A93AA93FC
:10039C00BA93EA93FA93EFB7EA930895A0916201A6
:1003AC000895E9BFEBB7E064EBBF0895109639F000
:1003BC0080EA9FE00197F1F7A8951197C9F7089586
:00000001FF
